:020000040800F2
:1000000030090020AD020008EB450008AB240008D1
:10001000E9450008FF0800087163000800000000BF
:10002000000000000000000000000000AD490008D2
:10003000010900080000000005480008BD5B000839
:10004000C7020008C7020008C7020008C70200086C
:10005000C7020008C702000805090008C702000817
:10006000250900084509000865090008C7020008BD
:10007000C7020008C7020008C7020008C70200083C
:10008000C7020008C7020008C7020008C70200082C
:10009000C7020008C7020008C7020008C70200081C
:1000A000C7020008C7020008C7020008C70200080C
:1000B000C7020008C7020008C7020008C7020008FC
:1000C000C7020008C7020008C7020008C7020008EC
:1000D000C7020008C7020008C7020008C7020008DC
:1000E000C7020008C702000800000000C70200089D
:1000F000C7020008C7020008C7020008C7020008BC
:10010000C7020008C7020008C7020008C7020008AB
:10011000C7020008C7020008C7020008C70200089B
:10012000C7020008C7020008C7020008C70200088B
:10013000C7020008C7020008C7020008C70200087B
:1001400000000000000000000000000000000000AF
:10015000C7020008C7020008C7020008C70200085B
:10016000C7020008C7020008C7020008C70200084B
:10017000C7020008C7020008C7020008000000000C
:10018000C7020008C7020008C7020008C70200082B
:10019000C7020008C7020008C7020008C70200081B
:1001A000C7020008C7020008C7020008C70200080B
:1001B000C7020008C7020008C7020008C7020008FB
:1001C000C7020008C7020008C7020008C7020008EB
:1001D000C7020008C7020008C7020008C7020008DB
:1001E000C7020008C7020008C7020008C7020008CB
:1001F000C7020008C7020008C7020008C7020008BB
:10020000C7020008C7020008C7020008C7020008AA
:10021000C7020008C7020008C7020008C70200089A
:10022000C7020008C7020008C7020008000000005B
:10023000C7020008C702000800000000C70200084B
:10024000C7020008C7020008C7020008C70200086A
:10025000C7020008C7020008C7020008C70200085A
:10026000C7020008C7020008C7020008C70200084A
:10027000C7020008C7020008C7020008000000000B
:10028000C702000800000000C702000800000000CC
:1002900000000000C7020008DFF80CD000F0AEFA42
:1002A00000480047756D0008300900200648804767
:1002B00006480047FEE7FEE7FEE7FEE7FEE7FEE74B
:1002C000FEE7FEE7FEE7FEE7795C0008990200081A
:1002D0002DE9F05F0546002092469B46884606467B
:1002E000814640241BE0284641464746224600F00E
:1002F00078F853465A46C01A914110D31146184611
:10030000224600F05FF82D1A67EB01084F4622469F
:100310000120002100F056F817EB00094E41201E85
:10032000A4F10104DFDC484631462A464346BDE8D5
:10033000F09F40EA01039B0703D009E008C9121FA0
:1003400008C0042AFAD203E011F8013B00F8013B8F
:10035000521EF9D27047D2B201E000F8012B491EBB
:10036000FBD270470022F6E710B513460A46044652
:100370001946FFF7F0FF204610BD30B505460020B6
:10038000034600E05B1C934205D2EC5CC85C201A7B
:1003900001D1002CF6D130BD30B50B46014600200E
:1003A0002022012409E021FA02F59D4205D303FA37
:1003B00002F5491B04FA02F52844151EA2F10102B8
:1003C000F1DC30BD202A04DB203A00FA02F10020E3
:1003D00070479140C2F1200320FA03F31943904083
:1003E0007047202A04DB203A21FA02F000217047EE
:1003F00021FA02F3D040C2F120029140084319468D
:1004000070472DE9FE4F804681EA0300C00F0C467D
:10041000009021F0004123F00045B8EB0200A94113
:1004200005D24046214690461C460B46024623F024
:100430000040104347D0270DC7F30A00C3F30A5109
:100440000290401A019040286BDAC3F3130040F485
:10045000801B0098924620B10023D2EB030A63EB85
:100460000B0B01985946C0F140025046FFF7AAFF16
:1004700006460D4650465946019A00F0D1F910EB58
:1004800008006141002487EA115284EAE7731A43A5
:1004900040D0009A62B3019A012A4FEA075215DC54
:1004A000001B61EB02014FF0004202EA0752CDE966
:1004B0000042001C41F5801132462B4600F0D1F974
:1004C00003B0BDE8F08F40462146F9E7001B61EB21
:1004D0000201001C41F5801300185B412018A2F5B1
:1004E000001747EB030140EAD570B6196D4111E0E2
:1004F0006D084FEA360645EAC0754FEA0752001B01
:1005000061EB0201001C41F5801149084FEA3000FF
:100510000019514132462B4603B0BDE8F04F00F0C0
:1005200091B90098012240000023D0EB020263EB56
:10053000E073009821464FEAE074B8EB000061EBED
:100540000401E9E783F000435BE781F0004158E7ED
:100550002DE9FE4F81EA030404F0004421F000413C
:1005600000944FF0000B23F0004350EA01045ED0EA
:1005700052EA03045BD0C3F30A54C1F30A552C4476
:10058000A4F2F3340194A0FB0254C1F3130141F42B
:100590008011C3F3130343F4801301FB024400FBF7
:1005A000034E840A970A44EA815447EA8357A4FB1E
:1005B000076802958D0A05FB07854FEA932C04FB1B
:1005C0000C542705029D4FEA065847EA1637B5EB4B
:1005D00008056EEB070C870E920E47EA811742EA78
:1005E0008312A7FB0201B6EB0B0164EB00042B0D99
:1005F00043EA0C335E1844EB1C50DA465146E7FBE5
:100600000201C5F313044FEA0B3343EA14534FEAD4
:100610000432019C43EA0603A4F10C040294009CFA
:10062000CDE900B400F01DF903B0BDE8F08F002063
:100630000146F9E72DE9F04D81EA030404F0004B8F
:1006400021F0004514464FF0000A23F0004150EA23
:10065000050220D054EA01021DD0C5F30A57024614
:10066000C5F31303C1F31300C1F30A5640F4801518
:1006700043F48013A7EB0608101BD64608F2FD389A
:1006800073EB050002D308F1010801E092185B4109
:10069000B8F1000F03DA00200146BDE8F08D00201C
:1006A0004FF48011064684460EE0171B73EB0507D6
:1006B00005D3121B63EB050306434CEA010C490802
:1006C0004FEA300092185B4150EA0107EDD152EA3F
:1006D000030012D082EA040083EA0501084305D032
:1006E000101BAB4106D20122002306E000224FF08E
:1006F000004302E06FF0010253101AEB06004CEBCE
:10070000085110EB0A0041EB0B01BDE8F04D00F081
:1007100099B800002DE9F041054621F000400C4653
:10072000284309D0C4F30A5040F23341884205DD22
:1007300028462146BDE8F0812846FBE740F2FE311D
:10074000884210DC0CDB4FEA043040EA155050EAD6
:10075000053105D0104804F0004101430020E9E7CD
:1007600000200146E6E7A0F233404642C6F14002CF
:1007700028462146FFF726FE07468846284621469A
:100780003246FFF72EFE43463A4600F05BF832460B
:10079000BDE8F041FFF716BE0000F03FC1F30A527A
:1007A000C1F3130140F2FF3341F480119A4202DA9F
:1007B00000200146704740F233439A42A2F233428E
:1007C00002DC5242FFF70DBEFFF7FCBD30B5041E40
:1007D00071F1000404DB4FF00044404264EB01017E
:1007E000141E73F1000405DB1C464FF00043524217
:1007F00063EB0403994208BF904230BD064C074D9D
:1008000006E0E06840F0010394E8070098471034E0
:10081000AC42F6D3FFF744FD1478000834780008A2
:10082000202A06DBCB17203A41FA02F043EAE073B4
:1008300006E041FA02F3D040C2F1200291400843A1
:100840001946704710B5141E73F1000408DA401CF5
:1008500041F1000192185B411A4301D120F00100DF
:1008600010BD2DE9F04D92469B4611B1B1FA81F2CF
:1008700002E0B0FA80F220329046FFF7A3FD044672
:100880000F4640EA0A0041EA0B0153465A46084324
:1008900013D0114653EA010019D0C8F14002504666
:1008A000FFF79FFD05460E46504659464246FFF764
:1008B00089FD084305D0012004E020463946BDE803
:1008C000F08D0020054346EAE0762C4337430A9832
:1008D0006305E40AA0EB08000022FD0A44EA47543D
:1008E0000A3002D500200146E9E7010510196941E7
:1008F000DDE9084500196941BDE8F04DA2E7FEE7D2
:100900007047000010B54FF0B044D4F88800C0071D
:1009100005D003A005F02EFD0120C4F8880010BD0D
:10092000300D0A0010B54FF0B044D4F888004007ED
:1009300005D503A005F01EFD0420C4F8880010BDF5
:10094000330D0A0010B54FF0B044D4F8880000070A
:1009500005D503A005F00EFD0820C4F8880010BDE1
:10096000320D0A0010B54FF0B044D4F88800C0062C
:1009700005D503A005F0FEFC1020C4F8880010BDCA
:10098000310D0A00304810B586B0016841F0010110
:100990000160016801F001010591016841F0100159
:1009A0000160016801F010010591016841F010013A
:1009B0000160016801F010010591016841F010012A
:1009C000016000680022214900F01000059001201C
:1009D0008DE807001E48694600F01EF90022062037
:1009E000114600F013FC062000F002FC194C042014
:1009F00069460090204600F00FF9002208201146B9
:100A000000F004FC082000F0F3FB08206946009089
:100A1000204600F001F900220920114600F0F6FB03
:100A2000092000F0E5FB102069460090204600F008
:100A3000F3F800220A20114600F0E8FB0A2000F03B
:100A4000D7FB06B010BD0000E044025800001111B1
:100A50000000025800100258F0B5B3F5804F05D0E1
:100A60006FF0704140F822100020F0BD8C688E8934
:100A7000D1E9003725028C6950F8221045EA064575
:100A800043EA0713034F2B43394023430B4340F8FA
:100A90002230E9E70000F0CF2DE9F043D1E902C8A8
:100AA0004A68D1E9045342EA0C0248EA050842EADE
:100AB000080242EA030251F8183BBCF1080F9946BC
:100AC00091E8F01150F8233042EA04028C6942EABE
:100AD00005020D6A42EA0602CE6942EA0702144F95
:100AE00042EA080242EA0C0242EA040242EA050231
:100AF00003EA070342EA060242EA0302A1F11801EF
:100B000001D142F0400240F829200A6BB2F5801F63
:100B100005D10A684AB1026842F4801202600A688C
:100B20001AB10268496B0A4302600020BDE8F083F5
:100B30008004C0FFF0B58C6800EB8202B1F80CC0F5
:100B4000D1E900360D8A2702124C47EA0C4743EAE6
:100B500006130E7D3B4304EB055C55686701D1F835
:100B600018E043EA0C0307EB0666334305F0404503
:100B700043EA0E032B4353600268D20207D5098A69
:100B8000426804EB015122F47002114341600020DD
:100B9000F0BD00000000F0FF2DE9F8434FF49C7811
:100BA000994616460D46DDF8207004464B46294608
:100BB00016F8012B2046009703F026FE444502D28A
:100BC0000834A4B207E0E02D4FF0000402D2103543
:100BD000ADB200E0002530780028E7D1BDE8F88309
:100BE000034A02EB01111022A1F50071FFF7A1BB2E
:100BF0006070000870B5044600F016F90546601CE8
:100C000002D004480078044400F00EF9401BA042D2
:100C1000FAD370BD240000202DE9F84F6F4D00225B
:100C20004FF001094FF0030E4FF00F0B0B6809FA5C
:100C300002F803EA0803434574D14C68022C01D042
:100C4000122C0FD1D4080E69570700EB8404A2467A
:100C5000246AFF0E0BFA07FCBE4024EA0C0426436C
:100C6000CAF820600F79540006680EFA04FC07F0F9
:100C7000030726EA0C06A740374307604E68012E9B
:100C800005D0022E03D0112E01D0122E0FD186686E
:100C9000CF6826EA0C06A7403743876046680F797D
:100CA00026EA0806C7F30017974037434760C7682E
:100CB0008E6827EA0C07A6403E43C6604C68E400F5
:100CC00030D5474C266846F002062660246822F09C
:100CD000030606F1B04604F0020400949407270FBF
:100CE000D6F80844DFF8FC800BFA07FC404524EAFC
:100CF0000C0402D14FF0000C41E0DFF8ECC060457D
:100D000002D14FF0010C3AE0DFF8E0C0604502D1BB
:100D10004FF0020C33E0DFF8D8C0604503D14FF04C
:100D2000030C2CE053E0DFF8CCC0604502D14FF05B
:100D3000040C24E0DFF8C0C0604502D14FF0050C80
:100D40001DE0DFF8B8C0604502D14FF0060C16E098
:100D5000DFF8ACC0604502D14FF0070C0FE0DFF8C0
:100D6000A4C0604502D14FF0080C08E0DFF898C03D
:100D7000604502D14FF0090C01E04FF00A0C0CFA6B
:100D800007FC4CEA040CC6F808C42C684E6824EA38
:100D90000304F60300D51C432C606C684E6824EAFB
:100DA0000304B60300D51C436C604FF0B0444F6899
:100DB0002668FF0226EA030600D51E4326604F6818
:100DC0006668BF0226EA030600D51E436660521C11
:100DD000102AFFF42BAFBDE8F88F00008000005808
:100DE000F444025800000258000402580008025857
:100DF000000C025800100258001402580018025843
:100E0000001C0258002002580024025800690840C3
:100E100000D00120704742694A40426170470AB1E0
:100E20000183704741837047014880687047000024
:100E30002400002030B590F84120202A24D190F8D9
:100E40004020012A20D0012380F84030242280F85D
:100E50004120202300240268156825F00105156053
:100E60000268156825F480551560026815680D4301
:100E7000156001680A6842F001020A6080F841309A
:100E800080F84040002030BD022030BD70B5040025
:100E900004D094F84100002510B106E0012070BD97
:100EA000204684F8405000F005F9242084F84100E1
:100EB0002068016821F001010160D4E9001020F0F0
:100EC000706008612068816821F400418160E068F9
:100ED00021680128A06806D040F404408860E068DA
:100EE000022803D006E040F40040F7E721684FF401
:100EF0000060486020212068114A43681343436022
:100F00002068C26822F40042C26054F8106B0DCC15
:100F1000104340EA0320F06054F81C3CD4E900027E
:100F20001043186054F81C0D026842F00102026080
:100F3000656484F84110256384F84250002070BD38
:100F4000008000022DE9FF4F83B0044690F8410075
:100F50009A469346DDE91087DDF84890202874D141
:100F60005FEA080072D0002F70D094F8400001288A
:100F70006BD0012084F84000FFF756FF012206469F
:100F800019230090D103204601F0AAFB002874D158
:100F90000025C4F82480222184F84110402084F8E0
:100FA000420065646785534665635A460499204646
:100FB000CDE9009601F046FB28B1606C84F8405002
:100FC00004285ED059E0618DFF2738484FF08078C3
:100FD000FF294FF0007A04D927853A46434600900E
:100FE00005E0618D53462185009094F82820204625
:100FF000049901F05FFB00224B4604212046009635
:1010000001F06EFBC8BB2168606A496A421C6262DB
:101010000170208D401E0004000C2085618DA1F11F
:10102000010161851DD1608DD8B100224B46802120
:101030002046009601F054FBF8B9608DFF2806D9D0
:1010400027853A464346009507E02CE019E0608D7D
:1010500053462085009594F828202046049901F0F5
:1010600029FB608D0028C6D132464946204601F052
:1010700060FB40B1606C042803D0032007B0BDE8DA
:10108000F08F0120FAE720682021094AC161206819
:1010900043681340436084F8411084F842500020B4
:1010A00084F84050EAE70220E8E7000000240080CE
:1010B00000E800FE70470000024881680278114491
:1010C0008160704724000020032010B500F0BEF8B6
:1010D000002000F007F808B1012010BD00F050F822
:1010E000002010BD70B50D4D04464FF47A700C4AC7
:1010F00029781268B0FBF1F0B2FBF0F001F0FAF8D9
:1011000048B9102C07D200222146501E00F07EF86C
:1011100000206C6070BD012070BD00002400002024
:1011200030000020F0B5154C4378211D0A1D2360C6
:101130000378F3B143680B60057BC67A817A437B01
:101140002D07847B45EA0665C77B90F809C0067ABF
:1011500090F800E045EAC14040EA834040EA44405C
:1011600040EA074040EA0C2040EA460040EA0E0010
:1011700001E0002008601060F0BD000098ED00E084
:101180001A4808B5016841F002010160006800F0EA
:1011900002000090032000F059F800226FF00B00CD
:1011A000114600F033F800226FF00A00114600F0FB
:1011B0002DF800226FF00900114600F027F80022F8
:1011C000501F114600F022F80022101F114600F0B7
:1011D0001DF80022901E114600F018F80022BDE80C
:1011E0000840501E114600F011B80000F4440258A7
:1011F000002809DB410900F01F028900012001F1EC
:10120000E0219040C1F80001704700000E4BF0B49F
:101210001B680D46C3F30223C3F10706042E00D951
:101220000426191D072901D2002300E0DB1E01243A
:1012300004FA06F19C40491E2940641E994014405E
:101240002143F0BC05F0BAB80CED00E0064900F00F
:10125000070210B54FF6FF040868044B204040EA2F
:1012600002201843086010BD0CED00E00000FA05F4
:1012700010B500F081FA08494FF480730A6893FAB8
:10128000A3F3064902F47062B3FA83F3DA40044B25
:101290009A5CD040086010BD18440258300000200D
:1012A0005070000810B500F021FA074910220968B3
:1012B00092FAA2F201F07001B2FA82F2D140034A2E
:1012C000515CC84010BD0000204402585070000816
:1012D000424A30B5414D141D13681435DFED400A04
:1012E0001268291FB7EE001A24682D6813F0030353
:1012F00004F01004C2F30532C5F3CC0515FB04F469
:1013000000EE104AB8EE400A05D0364C012B5DD0F5
:10131000022B5BD159E0314C334B283C2568AD069C
:1013200015D525680C68C5F3C105C4F30804EB4066
:1013300001EE904AB3FBF2F2F8EE611A40EE201A89
:1013400000EE102A71EE810AB8EE400A10E00C6837
:10135000B3FBF2F2C4F3080401EE904AB8EE612A3E
:1013600001EE902A00EE202AB8EE610A72EE010A20
:101370000A6820EE200AC2F34622521C00EE902A90
:10138000F8EE600A80EE201AFCEEC10AC0ED000AF9
:101390000A68C2F30642521C00EE902AF8EE600A78
:1013A00080EE201AFCEEC10AC0ED010A0968C1F303
:1013B0000661491C00EE901AF8EE600A80EE201AD1
:1013C000BCEEC10A80ED020A30BD084C0B68B4FBCC
:1013D000F2F2C3F3080301EE903ABFE72844025843
:1013E0000000003900093D000090D00300127A008F
:1013F000424A30B5414D141D13681C35DFED400ADB
:101400001268291FB7EE001A24682D6813F0030331
:1014100004F48074C2F30552C5F3CC0515FB04F443
:1014200000EE104AB8EE400A05D0364C012B5DD0D4
:10143000022B5BD159E0314C334B283C2568AD067B
:1014400015D525680C68C5F3C105C4F30804EB4045
:1014500001EE904AB3FBF2F2F8EE611A40EE201A68
:1014600000EE102A71EE810AB8EE400A10E00C6816
:10147000B3FBF2F2C4F3080401EE904AB8EE612A1D
:1014800001EE902A00EE202AB8EE610A72EE010AFF
:101490000A6820EE200AC2F34622521C00EE902A6F
:1014A000F8EE600A80EE201AFCEEC10AC0ED000AD8
:1014B0000A68C2F30642521C00EE902AF8EE600A57
:1014C00080EE201AFCEEC10AC0ED010A0968C1F3E2
:1014D0000661491C00EE901AF8EE600A80EE201AB0
:1014E000BCEEC10A80ED020A30BD084C0B68B4FBAB
:1014F000F2F2C3F3080301EE903ABFE72844025822
:101500000000003900093D000090D00300127A006D
:101510002DE9F047DFF8C49104460E46D9F80000E3
:1015200000F00700B0420CD2D9F8001021F00701FA
:101530003143C9F80010D9F8000000F00700B042AC
:1015400072D12078DFF89881800707D5E268D8F853
:10155000001021F00F011143C8F800102078C007D7
:1015600067D05F49A368D8F80020183922F4706268
:101570001A43C8F80020606802281CD003281DD038
:10158000096801281DD04907002963DA544D083D38
:10159000296821F0070101432960FFF745FC6168D4
:1015A000074641F28830022914D0032920D00129AE
:1015B00082462AD039E009688903E5E7096889018C
:1015C000E2E7C905E0E700BFFFF72EFCC11B51456C
:1015D00001D926E082462868C0F3C2000228F3D170
:1015E00027E000BFFFF720FCC11B514501D918E0DF
:1015F00082462868C0F3C2000328F3D119E000BF77
:10160000FFF712FCC11B51450BD82868C0F3C2007C
:101610000128F5D10DE000BFFFF706FCC11B5145C5
:1016200003D90320BDE8F08714E0286810F0380FD4
:10163000F2D1D9F80010484601F00701B1420BD9A8
:10164000016821F0070131430160006800F00700E4
:10165000B04201D00120E5E72078400707D5226994
:10166000D8F8001021F070011143C8F8001021785B
:101670001B48001D090705D56269016821F070014A
:10168000114301602178C90605D5A269016821F4DA
:10169000E061114301602078800607D51048E269B7
:1016A0000830016821F070011143016000F064F816
:1016B000D8F800104FF4807292FAA2F201F470612F
:1016C000B2FA82F2D140074A515CC840064908602C
:1016D0000020FFF707FD0020A4E7000000200052D3
:1016E00018440258507000083000002010B5FFF771
:1016F000BFFD084901230A6893FAA3F3064902F0E3
:101700000F02B3FA83F3DA40044B9A5CD0400860CE
:1017100010BD00001844025834000020507000082A
:1017200010B5FFF7E3FF07491022096892FAA2F209
:1017300001F07001B2FA82F2D140034A515CC84014
:1017400010BD00001C4402585070000810B5FFF78F
:10175000CDFF07494FF48072096892FAA2F201F4B2
:10176000E061B2FA82F2D140024A515CC84010BD39
:101770001C440258507000084749F0B547480968B2
:10178000454B103B11F0380409D00111082C04D04E
:10179000C210102C0BD0182C0BD00846F0BD1968C5
:1017A0008906FBD51968C1F3C101C840F0BD1046D8
:1017B000F0BD394CDFF8E0C01834261D0CF1240CC4
:1017C0002768351D2468DFED360AB7EE001A366843
:1017D000DCF800C017F0030706F00106C4F3051497
:1017E000CCF3CC0C1CFB06F600EE106AB8EE400AF7
:1017F00009D0012F01D0022F3BD02868B1FBF4F1B2
:10180000C0F308003AE01968890615D51A682968F6
:10181000C2F3C102C1F30801D04001EE901AB0FB3F
:10182000F4F0F8EE611A40EE201A00EE100A71EEA4
:10183000810AB8EE400A0BE02968B0FBF4F0C1F36E
:10184000080101EE901AB8EE612A01EE900A1BE041
:1018500020EE200A2868C0F34620401C00EE900AC3
:10186000F8EE600A80EE201ABCEEC10A10EE100AF3
:10187000F0BD2868B2FBF4F1C0F3080001EE900A55
:10188000B8EE612A01EE901A00EE202AB8EE610A45
:1018900072EE010ADCE70000104402580090D00309
:1018A000000000392DE9F047FF4C05460078DFF8CD
:1018B000F883103CFC4FC00708F118084CD038687A
:1018C000C0F3C20002281AD03868C0F3C20003284F
:1018D00005D1D8F8000000F0030002280FD0686896
:1018E000B0F5803F12D010B1B0F5A02F18D020680D
:1018F00020F480302060206820F4802009E02068F7
:10190000800329D56868002876D025E0206840F457
:1019100080302060686890B1FFF786FA06460AE0DA
:10192000206840F480202060F0E700BFFFF77CFAD9
:10193000801B64287ED820688003F7D50CE0FFF771
:1019400073FA064605E000BFFFF76EFA801B6428B5
:10195000F0D820688003F7D42878D34E0C3E800757
:101960005DD538684FF47C3A10F0380F13D03868E2
:10197000C0F3C200032803D1D8F8000080070AD0C2
:10198000E868C0B3216821F0190101432160FFF725
:101990004BFA814620E02068400702D5E86800281D
:1019A000B2D0E968206820F0190008432060FFF7F2
:1019B0003BFA814606E000BFFFF736FAA0EB0900CC
:1019C0000228B7D820684007F6D508E0FFF72CFAC0
:1019D000A0EB09000228ADD820684007F6D5286999
:1019E00032689AFAAAF1B1FA81F1884022F47C3186
:1019F0000143316013E000E0AAE0206820F001001C
:101A00002060FFF711FA814606E000BFFFF70CFAED
:101A1000A0EB090002288DD820684007F6D428786A
:101A2000C00649D538684FF0F84AC0F3C200012813
:101A300017D000E0DAE03868C0F3C200032805D10F
:101A4000D8F8000000F0030001280AD0E869002857
:101A5000206822D040F080002060FFF7E5F9814641
:101A60000CE02068C0050CD5E869802870D108E03A
:101A7000FFF7DAF9A0EB09000228A2D82068C00518
:101A8000F6D5286A32689AFAAAF1B1FA81F188404B
:101A900022F0F841014331600EE020F08000206028
:101AA000FFF7C2F9064604E0FFF7BEF9801B0228E3
:101AB00087D82068C005F7D42878000729D57A4848
:101AC0006969643000298146016811D041F0010143
:101AD0000160FFF7A9F9064605E000BFFFF7A4F98A
:101AE000801B022897D8D9F800008007F6D510E0AF
:101AF00021F001010160FFF797F9064605E000BFFC
:101B0000FFF792F9801B022870D8D9F800008007EF
:101B1000F6D42878800625D5A8690028206810D03A
:101B200040F480502060FFF77FF9064605E000BFD3
:101B3000FFF77AF9801B022858D820688004F7D56F
:101B400010E020F480502060FFF76EF9064606E0B2
:101B5000D7E000BFFFF768F9801B022846D820684D
:101B60008004F7D4287840074FD5DFF84091D9F8A2
:101B7000001041F48071C9F80010FFF755F90646CE
:101B800005E000BFFFF750F9801B64282ED8D9F874
:101B90000000C005F6D5444EA868603601280AD07A
:101BA00008B1052813D0306820F00100306030689B
:101BB00020F0040002E0306840F001003060A868C6
:101BC00041F2883A98B1FFF72FF981460AE0306870
:101BD00040F004003060EEE7FFF726F9A0EB0901C2
:101BE000514503D830688007F6D50EE088E0FFF74E
:101BF0001BF9814606E000BFFFF716F9A0EB0901CB
:101C000051457DD830688007F6D4686AE8B33968F2
:101C1000C1F3C201032974D00228206820F080702B
:101C2000206003D0FFF700F9054685E0FFF7FCF8D8
:101C3000064604E0FFF7F8F8801B022879D82068F0
:101C40008001F7D4EB6A40F2F332D8F800104FF479
:101C5000FE0755F8286F914341EA03113143C8F854
:101C60000010287B4FF0FE4C0F4EB5F80880400264
:101C70002B8A20362A7DA8F10108311DA0F50070BD
:101C800080B25B1EC8F3080800E058E0521E07EA65
:101C9000034340EA080018434FF6F8730CEA026267
:101CA000104330600A6803E01044025800480258AC
:101CB00093FAA3F72E6A24489A43B7FA87F7BE40EF
:101CC00032430A600168AA6921F00C0111430160E6
:101CD0000168EA6921F0020111430160016841F4E1
:101CE00080310160016841F400310160016841F414
:101CF00080210160016841F001010160206801E07C
:101D000017E01EE040F080702060FFF78DF8054678
:101D100005E000BFFFF788F8401B022809D82068BB
:101D20008001F7D50BE000BFFFF77EF8401B0228CB
:101D300002D90320BDE8F08720688001F4D4002098
:101D4000F8E70120F6E700002C4402582DE9F0479F
:101D5000040029D04A4A4FF000092068494B4A4DF7
:101D60009042C4F8289006D0984204D0A84202D0ED
:101D7000E1680F2918D8E1684FF0010AE76B0831D4
:101D8000C9080AEB57167143904205D0984203D018
:101D9000A84201D0082907D8904203D0984201D028
:101DA000A84204D1102902D90120BDE8F08794F897
:101DB000810020B9204684F8809000F067F8022066
:101DC00084F881002068016821F001010160A069A8
:101DD000B0F1806F0AD16068B0F5800F06D1A06BBA
:101DE00020B92068016841F480510160A56AE0696A
:101DF0002368E16B2843E268084310439860D4E904
:101E00000D02D4E905C1636A25691843D4F820801E
:101E10000A43266810432843A56DD4E90172D4E92A
:101E2000123140EA0C0040EA0800384308431043EE
:101E300018432843F060606868B92068816821F41D
:101E4000C05141F4006181602068816821F4C06163
:101E500041F4806181602068016D21F0010101651C
:101E60006068400206D52068626DC16821F00041BB
:101E70001143C160C4F8849084F881A0002094E7E5
:101E80000030014000380040003C00402DE9F041A6
:101E90002E4C86B0206840F001002060206800F0E1
:101EA00001000590206840F001002060206800F0EB
:101EB00001000590206840F001002060206800F0DB
:101EC0000100059021481030016841F48051016003
:101ED000006802250126DFF8788000F48050059024
:101EE0002020694605278DE86100CDE9035740466B
:101EF000FEF792FE40206946049700904046FEF7A8
:101F00008BFE80206946049700904046FEF784FED1
:101F1000E8016946CDE90006CDE902654046FEF7D5
:101F20007BFE206840F0200020602068690200F0FD
:101F3000200005900020CDE90205CDE900100548FC
:101F40006946FEF769FE06B0BDE8F081E04402583C
:101F500000000258001402582DE9F84F044690F88A
:101F600080001E4692460A9D01288B4613D04FF0F2
:101F7000010984F88090FEF757FF94F88120074606
:101F80000020012A4FF480010ED062688A4209D1F4
:101F9000A2683AB902E00220BDE8F88F94F88120E7
:101FA000042A01D0022136E0BBF1000F32D0BAF191
:101FB000000F2FD076B394F88120042A02D0052296
:101FC00084F881208046C4F88400C4F864A0A4F892
:101FD0006A60A4F86860C4F85CB0A4F86260A4F811
:101FE000606020676067206842686FF30F023243C9
:101FF00042602068026842F0010202606068884224
:1020000004D12068016841F400710160E0680F2884
:1020100041D849E0012184F880000846BCE700BFB0
:10202000B4F8620070B12068416989070AD5E16D92
:1020300009680162E06D001DE065B4F86200401EB1
:10204000A4F86200B4F86A0080B1206848F208027F
:10205000416911420AD0006B616E0860606E001D1C
:102060006066B4F86A00401EA4F86A00681C12D0CA
:10207000FEF7DAFEC01BA8420DD3204602F00CFC8E
:10208000D4F8842084F8808042F48071C4F88410ED
:1020900084F88190EAE0B4F862000028C0D1B4F876
:1020A0006A000028BCD1C9E007284AD8BEE000BFBA
:1020B000B4F86200F0B12068416989071AD5B4F814
:1020C000621001290BD9E16B49B1E16D0968016228
:1020D000E06D001DE065B4F86200801E08E0E16D6F
:1020E00009880184E06D801CE065B4F86200401E40
:1020F000A4F86200B4F86A00E0B12068416911F404
:10210000604F17D04169090409D5006B616E086002
:10211000606E001D6066B4F86A00801E08E0008EE4
:10212000616E0880606E801C6066B4F86A00401EB4
:10213000A4F86A00681C04D0FEF776FEC01BA84213
:102140009BD2B4F862000028B2D1B4F86A0000282B
:10215000AED173E0B4F8620080B3206841698907AA
:102160002CD5B4F8621003290CD9E16B402909D9A8
:10217000E16D09680162E06D001DE065B4F8620080
:10218000001F19E0B4F8621001290BD9E16B49B1C5
:10219000E16D09880184E06D801CE065B4F862009F
:1021A000801E09E0E16D097880F82010E06D401C88
:1021B000E065B4F86200401EA4F86200B4F86A005A
:1021C00068B32068416911F4604F28D0416909045F
:1021D00009D5006B616E0860606E001D6066B4F822
:1021E0006A00001F19E0416901F4C041B1F5005FC8
:1021F00009D9008E616E0880606E801C6066B4F83C
:102200006A00801E09E090F83000616E0870606E10
:10221000401C6066B4F86A00401EA4F86A00681C9E
:1022200004D0FEF701FEC01BA84289D2B4F86200B8
:1022300000288FD1B4F86A0000288BD100223B46D9
:1022400008212046009502F085FB28B1D4F88400CF
:1022500040F02000C4F88400204602F01DFB84F802
:102260008190D4F8841084F8808009B1012093E62D
:10227000002091E670B5040015460E4603D094F890
:10228000450010B107E0012070BD002084F8440033
:10229000204600F021F8206804F10801FEF7FCFB5D
:1022A000A26831462068FEF745FCE36A2946D4E976
:1022B0000102FEF7D1FBA2682068064950F82230DF
:1022C00043F0010340F82230086840F00040086005
:1022D000002070BD00400052704704284FF0E020FD
:1022E000016903D021F004010161704741F004014C
:1022F000FAE77047401EB0F1807F10B501D301208E
:1023000010BD4FF0E02460610F21601704F056F813
:102310000020A0610721216110BD10B5FFF7E9FF82
:1023200010BD10B5040003D094F8790010B107E097
:10233000012010BD002084F87800204600F026F827
:10234000242084F879002068016821F001010160EF
:10235000204603F067FD0128EBD0606B10B12046EA
:1023600003F0CEFC2068416821F490414160206870
:10237000816821F02A0181602068016841F0010133
:1023800001602046BDE8104003F01EBD10B586B0C8
:10239000044614216846FDF7E5FF1349206888428A
:1023A00020D11248016841F010010160006800F07E
:1023B000100005900D481038016841F001010160DE
:1023C000006800224FF4C06100F001000590022077
:1023D00007230493CDE90010CDE9022004486946A3
:1023E000FEF71AFC06B010BD00100140F044025880
:1023F000000002582DE9F843044690F879001F4682
:1024000016460D4620284ED1C5B1BEB194F87800CD
:10241000012848D0012284F8782021214FF00008BB
:10242000C4F87C8084F879106034FEF7FDFC2680C7
:1024300081466680603C4FF4805619E00120BDE87B
:10244000F88300BFB4F86200401EA4F862000022C6
:102450004B4680212046009703F058FFA0B9A068A2
:10246000B04201D1206988B115F8010B21680885B7
:10247000B4F862000028E5D100224B4640212046F6
:10248000009703F043FF38B10320D8E735F8020B7B
:102490002168C0F30800EAE7202184F879100020C1
:1024A00084F87880CBE70220C9E7FEE710B500F09A
:1024B0001FF800F09BF8BDE8104001A003F05ABFE0
:1024C00049324320496E69740D0A000001688A6927
:1024D000D243920701D400228A6200688169C9430D
:1024E000C90703D0816941F0010181617047000093
:1024F0001D4810B586B0016841F400110160006804
:1025000000F40010059018480838016841F00201F5
:102510000160016801F002010591016841F00201CA
:10252000016000681221022300F0020005904020A3
:10253000002204248DE81F000C4C69462046FEF75B
:102540006BFB8020694600902046FEF765FB06483D
:102550004C38016841F080010160016821F0800180
:10256000016006B010BD0000E844025800040258A3
:102570002DE9F0410446006890460E468069C0434C
:10258000C0062FD40025202720688069C04380061C
:1025900011D5701CF8D02EB1FEF746FCA0EB080058
:1025A000B042F1D984F8417084F84250032084F895
:1025B0004050BDE8F08121681020C8612068C761E3
:1025C0002046FFF783FF20680422074943680B4039
:1025D0004360626484F8417084F84250012084F8BA
:1025E0004050E6E70020E4E700E800FE0C48002148
:1025F00010B50A4C01230B4A0460C0E90121C0E96F
:10260000033141618161C1610162FEF73FFCBDE8B8
:10261000104003480021FEF70DBC000000540040AC
:1026200058020020734E60403EB54FF47A748DE836
:102630001C000A46014602480123FEF783FC3EBD0A
:10264000580200202DE9F843174604461848DAB22C
:10265000DDE908981E4600900023204600F02AF885
:1026600042464946204600F08CF818B1606C0428B8
:102670001CD018E0012EFDB209D02068390A816211
:1026800042464946204600F07CF80028EED12068FA
:102690008562002240214B462046CDF8008000F0A4
:1026A0001FF8002800D00320BDE8F8830120FBE7D5
:1026B0000020008070B50068C1F30901074E41EAAF
:1026C0000241049C4FF480654268194305EA545561
:1026D0003543AA4321430A43426070BDFF63FF03B1
:1026E0002DE9F0411D4617460E460446DDF81880D8
:1026F00013E0681C11D02DB1FEF796FBA0EB08008B
:10270000A8420AD90020202184F8411084F8420010
:1027100084F840000320BDE8F0812068806936EA33
:10272000000004D00020B842E3D00020F3E70120ED
:10273000F9E770B516460D4604461BE032462946B9
:102740002046FFF715FF08B1012070BD25B1FEF747
:102750006BFB801BA8420DD9626C002084F84000FE
:10276000202142F02002626484F8411084F8420083
:10277000032070BD20688069C0438006DED400203D
:1027800070BD70B516460D4604461DE0324629461A
:102790002046FFF7EDFE08B1012070BD681C13D084
:1027A00025B1FEF741FB801BA8420DD9626C0020C9
:1027B00084F84000202142F02002626484F8411035
:1027C00084F84200032070BD20688069C043800700
:1027D000DCD4002070BD00002DE9F04325488FB007
:1027E0002449031D1A1DD0F8008080311F68166827
:1027F0000D8821A127A003F0BDFD28A033463A464D
:10280000414603F0B7FD2FA0294603F0B3FD40F287
:102810001F54204600F07AF84FF6FF79009400210B
:102820004B463C2014A2FEF7B7F92BA13B4601A86A
:102830004246009603F0AEFD10214B462320009443
:1028400001AAFEF7A9F92AA12A4601A803F0A2FDD0
:1028500020214B462320009401AAFEF79DF9302148
:102860004B462320009425A2FEF796F90FB0BDE851
:10287000F083000000E8F11F4359455353204359AA
:10288000452D53544D3332483734332D432044655E
:102890006D6F00000D0A25730D0A0000446576690E
:1028A000636520556E697175652049443A30782515
:1028B0003038782030782530387820307825303816
:1028C000780D0A00466C6173682053697A653A2571
:1028D000754B420D0A000000534E3A3078253038CF
:1028E00078203078253038782030782530387800D6
:1028F000466C6173683A25754B422000205465731D
:1029000074696E67206F6E2020000000F0B5264FBE
:102910000646264B00254FF0DE4438780A2817D0AB
:102920000B2815D00E2832D00021212001F04CFDBB
:102930000021222001F048FD38780E2831D02220D5
:1029400020804FF496301E806D1C8542FBD3F0BD75
:102950000021022001F038FD0021032001F034FDA8
:102960000021042001F030FDEF21052001F02CFDB5
:102970000021062001F028FD0021072001F024FDA0
:102980000121082001F020FD3F210920D2E72A2063
:1029900020800020188018802B20208000201880A4
:1029A00018802C20CCE70000380000200008006FC1
:1029B0002C4830B587B0016841F48051016000684F
:1029C00000F48050059027480C30016841F0080160
:1029D0000160016801F008010591016841F01001F2
:1029E0000160016801F010010591016841F04001AA
:1029F0000160016801F040010591016841F00201A8
:102A00000160006802250C2100F0020005904CF2E4
:102A1000337001240294CDE90005CDE90351124839
:102A20006946FEF7F9F84FF6807000900F48694646
:102A3000FEF7F2F841F2010000900D486946FEF7FA
:102A4000EBF8CDE90245009469460194094C204613
:102A5000FEF7E2F8012220461146FEF7E0F907B042
:102A600030BD0000D4440258000C02580010025837
:102A700000180258000402581A49102230B5184BA9
:102A80000625194C8FB0002081E83800C860130279
:102A9000C1E9040295028861C8611404C1E9080310
:102AA000C1E90A0508630123C1E90D04C8630F25C4
:102AB00008640221CDE908300D900523CDE90A50C4
:102AC0000C9003930E90CDE90110CDE9040206901D
:102AD00001AA079008A90348FFF7CCFB0FB030BD4F
:102AE000004000520C020020044100522DE9F05F2A
:102AF000FE4CFFF75DFF641EFDD2FFF7BDFFFC4CEF
:102B000040F223106080002001F0CAFB0146608083
:102B1000F8A003F02FFC60884FF4807541F29067B5
:102B200040F22729A0F5134140F23F1625397DD008
:102B3000A0F513412839FAD0A0F503412539F6D084
:102B4000A0F5134140F2077B31394FF401786ED084
:102B5000A0F5134120396BD0B0F5134FFBD0A0F591
:102B6000194140F2055719397ED0A0F5A851053911
:102B700001D0B84279D1092020700021072001F04E
:102B800023FC3220FEF736F812204FF48E7101F04C
:102B90001BFC0121A42001F017FC0F21082001F0EB
:102BA00013FC08210A2001F00FFC08210D2001F080
:102BB0000BFC30205B46594601F006FC0721312012
:102BC00001F002FC322040F2036101F0FDFB4FF402
:102BD000E0643320214601F0F7FB342040F202216B
:102BE00001F0F2FB0221352001F0EEFB362041F628
:102BF0000F7101F0E9FB3720194601F0E5FB0021D8
:102C0000382001F0E1FB0021392001F0DDFB3A2002
:102C1000194601F0D9FB00213B2001F0D5FB07212B
:102C20003C2001F0D1FB00213D2002E0B3E092E125
:102C3000FEE201F0C9FB3220FDF7DCFF0121072095
:102C400001F0C2FB0121172001F0BEFB3220FDF78D
:102C5000D1FF10204FF4BD5101F0B6FB112040F21E
:102C6000172101F0B1FB01E05BE287E312204FF492
:102C70008F7101F0A9FB13204FF4706101F0A4FBE8
:102C800000212A2001F0A0FB0A21292001F09CFB51
:102C900012204FF49F7101F097FB0021502001F0AA
:102CA00093FBEF21512001F08FFB0021522001F016
:102CB0008BFB5320314601F087FB60204FF41C5101
:102CC00001F082FB0121612001F07EFB00216A20DE
:102CD00001F07AFB0021802001F076FB00218120A9
:102CE00001F072FB0021822001F06EFB00218320A5
:102CF00001F06AFB0021842001F066FB00218520A1
:102D000001F062FB1321902001F05EFB92204FF452
:102D1000407101F059FB0521932001F055FB002182
:102D2000952001F051FB0021972001F04DFB00217F
:102D3000982001F049FB0120294601F045FB0220C3
:102D4000214601F041FB032041F2300101F03CFB40
:102D50000021042001F038FB00210C2001F034FB9D
:102D600000210F2001F030FB0021202001F02CFB7E
:102D70000021212001F028FB2121072001F024FB64
:102D8000C820FDF737FF6121072001F01DFBC82097
:102D9000FDF730FFFEE3012047F6F0012070E5204B
:102DA00001F012FB0120294601F00EFB02204FF436
:102DB000E06101F009FB032041F2300101F004FB66
:102DC0000021042001F000FB082040F2022101F064
:102DD000FBFA0021092001F0F7FA00210A2001F096
:102DE000F3FA00210C2001F0EFFA00210D2001F090
:102DF000EBFA00210F2001F0E7FA0021102001F08A
:102E0000E3FA0721112001F0DFFA0021122001F07E
:102E1000DBFA0021132001F0D7FA0021072001F08E
:102E2000D3FA1020394601F0CFFA1120494601F0BB
:102E3000CBFA9D21122001F0C7FA13204FF4C8519C
:102E400001F0C2FA2521292001F0BEFA0D212B2024
:102E500001F0BAFA0721302001F0B6FA312040F231
:102E6000033101F0B1FA0321322001F0ADFA35202F
:102E700040F2062101F0A8FA0821362001F0A4FA58
:102E8000372040F2064101F09FFA38204FF441719B
:102E900001F09AFA0721392001F096FA3C2040F21D
:102EA000026101F091FA08213D2001F08DFA002124
:102EB000502001F089FAEF21512001F085FA00211C
:102EC000522001F081FA5320314601F07DFA602052
:102ED0004FF4274101F078FA0121612001F074FAE2
:102EE00000216A2001F070FA00210BE0FFFF1F00B3
:102EF00038000020446576696365436F646520256A
:102F0000780D0A00802001F05FFA0021812001F095
:102F10005BFA0021822001F057FA0021832001F0A2
:102F200053FA0021842001F04FFA0021852001F09E
:102F30004BFA1021902001F047FA92204FF4C06123
:102F400001F042FA072040F2331101F03DFA22214C
:102F5000002001F09EB9032041F214012070E72007
:102F600001F032FA0120294601F02EFA02204FF436
:102F7000007101F029FA032041F2300101F024FA36
:102F8000082040F2022101F01FFA0021092001F07F
:102F90001BFA00210A2001F017FA00210C2001F091
:102FA00013FA00210D2001F00FFA00210F2001F08B
:102FB0000BFA0021102001F007FA0721112001F07F
:102FC00003FA0021122001F0FFF90021132001F083
:102FD000FBF9C820FDF70EFE1020394601F0F4F988
:102FE0001120494601F0F0F93220FDF703FE0C21D3
:102FF000122001F0E9F93220FDF7FCFD13204FF417
:10300000006101F0E1F91121292001F0DDF90B2126
:103010002B2001F0D9F93220FDF7ECFD0021202012
:1030200001F0D2F90021212001F0CEF90021302059
:1030300001F0CAF94FF483743120214601F0C4F93C
:103040000021322001F0C0F93520414601F0BCF9E1
:10305000362041F20A6101F0B7F937205B46594644
:1030600001F0B2F93820214601F0AEF939201946B5
:1030700001F0AAF93C2040F2024101F0A5F93D20FF
:1030800040F60F4101F0A0F90021502001F09CF919
:10309000EF21512001F098F90021522001F094F91C
:1030A0005320314601F090F960204FF41C5101F09B
:1030B0008BF90121612001F087F900216A2001F0DC
:1030C00083F90021802001F07FF90021812001F0A7
:1030D0007BF90021822001F077F90021832001F0A3
:1030E00073F90021842001F06FF90021852001F09F
:1030F0006BF91021902001F067F992204FF4C06124
:1031000001F062F92121072001F05EF93220FDF77C
:1031100071FD6121072001F057F93220FDF76AFDAA
:10312000FBE30D2020700621282001F04DF901213C
:10313000002001F049F90021102001F045F901209B
:1031400047F2EF2101F040F902204FF4C06101F095
:103150003BF9032046F6382101F036F9112046F6F6
:10316000740101F031F900210F2001F02DF90B203D
:1031700045F2083101F028F903210C2001F024F96F
:103180000A210D2001F020F90E204FF4385101F0F2
:103190001BF9BE211E2001F017F925204FF4004134
:1031A00001F012F926204FF4F04101F00DF97821D9
:1031B000272001F009F900214E2001F005F9002136
:1031C0004F2001F001F9122040F6D90101F0FCF87E
:1031D0000021302001F0F8F831204FF4827101F025
:1031E000F3F83220294601F0EFF840F2053333209E
:1031F000194601F0E9F83420394601F0E5F83520A8
:10320000194601F0E1F83620594601F0DDF8372083
:103210004FF4407101F0D8F83A204FF4905101F08A
:10322000D3F83B204FF4006101F0CEF83321A3E046
:1032300000202070014601F0C7F80120294601F066
:10324000C3F802204FF4E06101F0BEF8032041F220
:10325000180101F0B9F80021042001F0B5F80820A8
:1032600040F2022101F0B0F80021092001F0ACF891
:1032700000210A2001F0A8F801210C2001F0A4F897
:1032800000210D2001F0A0F800210F2001F09CF892
:103290006420FDF7AFFC072040F2011101F094F823
:1032A0006420FDF7A7FC10204FF4865101F08CF844
:1032B0000721112001F088F84FF488731220194675
:1032C00001F082F813204FF4306101F07DF8002105
:1032D000292001F079F82B2044F2100101F074F854
:1032E0000021502001F070F8EF21512001F06CF81E
:1032F0000021522001F068F85320314601F064F8B3
:1033000060204FF41C5101F05FF80121612001F0B1
:103310005BF800216A2001F057F80021802001F0BD
:1033200053F80021812001F04FF80021822001F0A4
:103330004BF80021832001F047F80021842001F0A0
:1033400043F80021852001F03FF81021902001F082
:103350003BF80021922001F037F80121932001F081
:1033600033F89520194601F02FF80021972001F03D
:103370002BF800219820CBE20720EAE5A0F50941CF
:1033800040F20259893940F2023A2FD0A0F50941A2
:1033900099397CD0A0F5A84140F20723083977D0AD
:1033A000A0F58A41313974D0A0F58A41353971D000
:1033B000472870D0A0F5EE4183396DD040F223103C
:1033C0006080D32000F06CFFFE4D28882888298873
:1033D00041EA002081B26180AFF2E84002F0CAFF0A
:1033E0006088A0F5134141397DD0FCE305202070B1
:1033F0000121002000F0E8FF3220FDF7FBFB032055
:103400004AF6A40100F0E0FF3220FDF7F3FB0021B3
:103410000C2000F0D9FF3220FDF7ECFB0D2040F628
:103420000C0100F0D1FF3220FDF7E4FB0E204FF439
:103430002C5100F0C9FF3220FDF7DCFBB0211E202B
:1034400000F0C2FF3220FDF7D5FB012042F63F31EC
:1034500000F0BAFF3220FDF7CDFB02204FF4C0612F
:1034600000F0B2FF3220FDF7C5FB0021102000F074
:10347000ABFF3220FDF7BEFB112046F2700100F0D9
:10348000A3FF3220FDF7B6FB0021052005E0DFE0B9
:10349000A0E143E2E9E2FDE38EE300F095FF322094
:1034A000FDF7A8FB0021062000F08EFF3220FDF77B
:1034B000A1FB16204EF61C7100F086FF3220FDF7AE
:1034C00099FB0321172000F07FFF3220FDF792FBCC
:1034D000072040F2331100F077FF3220FDF78AFB1E
:1034E00000210B2000E0FDE300F06EFF3220FDF72D
:1034F00081FB00210F2000F067FF3220FDF77AFBEF
:103500000021412000F060FF3220FDF773FB002115
:10351000422000F059FF3220FDF76CFB00214820CB
:1035200000F052FF3220FDF765FB4920314600F0E4
:103530004BFF3220FDF75EFB00214A2000F044FFE4
:103540003220FDF757FB00214B2000F03DFF3220D9
:10355000FDF750FB44204FF46F4100F035FF32205F
:10356000FDF748FB0021452000F02EFF3220FDF73B
:1035700041FB4620314600F027FF3220FDF73AFBA1
:103580003020594600F020FF3220FDF733FB312078
:10359000414600E0BEE100F017FF3220FDF72AFBB4
:1035A0003220414600F010FF3220FDF723FB33208C
:1035B0004C46494600F008FF3220FDF71BFB342043
:1035C00040F2075100F000FF3220FDF713FB3520D9
:1035D000414600F0F9FE3220FDF70CFB3620414653
:1035E00000F0F2FE3220FDF705FB3720214600F007
:1035F000EBFE3220FDF7FEFA3A205446514600F029
:10360000E3FE3220FDF7F6FA3B20214600F0DCFE17
:103610003220FDF7EFFA0021232000F0D5FE322002
:10362000FDF7E8FA0021242000F0CEFE3220FDF75D
:10363000E1FA25204FF4004100F0C6FE3220FDF7EC
:10364000D9FA00214F2000F0BFFE00214E2080E477
:10365000042020700621282000F0B6FE0121002061
:1036600000F0B2FE03204AF6A46100F0ADFE042192
:103670000C2000F0A9FE0C210D2000F0A5FE0E206C
:103680004FF4205100F0A0FEB5211E2000F09CFE5A
:10369000012043F63F3100F097FE02204FF4C06155
:1036A00000F092FE0021102000F08EFE112046F660
:1036B000300100F089FE0021052000F085FE002188
:1036C000062000F081FE16204EF61C7100F07CFEF4
:1036D0003321072000F078FE00210B2000F074FE5B
:1036E00000210F2000F070FE0021412000F06CFE50
:1036F0000021422000F068FE0021482000F064FE16
:103700004920314600F060FE00214A2000F05CFEB6
:1037100000214B2000F058FE44204FF46F4100F090
:1037200053FE0021452000F04FFE4620314600F0B8
:103730004BFE00214E2000F047FE00214F2000F0FC
:1037400043FE3020594600F03FFE312040F2022176
:1037500000F03AFE3220414600F036FE33204B4660
:10376000494600F031FE342040F2075100F02CFEB3
:103770003520414600F028FE3620414600F024FE68
:103780003720194600F020FE3A205346514600F0FB
:103790001BFE3B20194600F017FE0021232000F0FD
:1037A00013FE0021242000F00FFE25204FF40041DD
:1037B00000F00AFE26204FF4E04100F005FE4BF237
:1037C000EB0101E00008006F202000F0FDFD7C21EE
:1037D0002720D2E5082029462070012000F0F4FDC2
:1037E00002204FF4E06100F0EFFD032041F23001D0
:1037F00000F0EAFD0021042000F0E6FD0820194653
:1038000000F0E2FD0021092000F0DEFD00210A2089
:1038100000F0DAFD00210C2000F0D6FD00210D2083
:1038200000F0D2FD00210F2000F0CEFD3220FDF788
:10383000E1F9072040F2011100F0C6FD3220FDF74A
:10384000D9F9102041F2B06100F0BEFD0121112034
:1038500000F0BAFD0121172000F0B6FD12204FF450
:103860009C7100F0B1FD13204FF4006100F0ACFD3D
:103870000921292000F0A8FD09212A2000F0A4FD3B
:103880000021A42000F0A0FD0021502000F09CFDAC
:10389000EF21512000F098FD0021522000F094FD0E
:1038A0005320314600F090FD60204FF41C5100F091
:1038B0008BFD0321612000F087FD00216A2000F0CC
:1038C00083FD0021802000F07FFD0021812000F099
:1038D0007BFD0021822000F077FD0021832000F095
:1038E00073FD0021842000F06FFD0021852000F091
:1038F0006BFD1321902000F067FD0021922000F065
:1039000063FD0321932000F05FFD95204FF4887143
:1039100000F05AFD40F273112EE501E207202070FD
:103920000121002000F050FD10204FF4C56100F08F
:103930004BFD0621122000F047FD132040F63221F6
:1039400000F042FD4021112000F03EFD50211520E5
:1039500000F03AFD1621122000F036FD3220FDF76E
:1039600049F9102045F2606100F02EFD3220FDF78C
:1039700041F9132042F64E2100F026FD0120294690
:1039800000F022FD02204FF4407100F01DFD0320E5
:1039900041F2300100F018FD082040F2022100F051
:1039A00013FD00210A2000F00FFD0021302000F05F
:1039B0000BFD312040F2024100F006FD32204FF4B1
:1039C000837100F001FD33204FF4E06100F0FCFC56
:1039D00034204FF4827100F0F7FC352040F20131C1
:1039E00000F0F2FC3620594600F0EEFC372040F2A1
:1039F000053100F0E9FC38204FF4027100F0E4FCDE
:103A0000392040F60B7100F0DFFC3220FDF7F2F8B0
:103A10000221412000F0D8FC60204FF41C5100F03E
:103A2000D3FC0121612000F0CFFC902040F219115D
:103A300000F0CAFC92204FF4857100F0C5FC04210F
:103A4000932000F0C1FCA020294600F0BDFC3220EC
:103A5000FDF7D0F8072040F2331100F0B5FC32201A
:103A6000FDF7C8F80021A0203CE20C202070302196
:103A7000152000F0A9FC10219A2000F0A5FC2021BF
:103A8000112000F0A1FC102043F2284100F09CFC22
:103A90000221122000F098FC132041F2380100F0BE
:103AA00093FC2820FDF7A6F81221084600F08CFCB4
:103AB0002820FDF79FF8102043F2204100F084FCFD
:103AC000132043F2450100F07FFC4620FDF792F8F9
:103AD0000021302000F078FC312040F2024100F05B
:103AE00073FC322040F2073100F06EFC33204FF4BB
:103AF000417100F069FC0421342000F065FC3520A0
:103B000040F2014100F060FC3620594600F05CFCB8
:103B1000372040F2053100F057FC4FF4C2633820E3
:103B2000194600F051FC3920194600F04DFC0120E7
:103B3000294600F049FC02204FF4407100F044FC9B
:103B4000032041F2300100F03FFC082040F608015C
:103B500000F03AFC08210A2000F036FC60204FF407
:103B60001C5100F031FC0121612000F02DFC90205F
:103B70004FF49F7100F028FC9220294600F024FCAD
:103B80009320294600F020FCA0204FF4405100F083
:103B90001BFC1021A32000F017FC0121072000F0DE
:103BA00013FC2121072000F00FFC2321072000F047
:103BB0000BFC33210720B1E0062020700121FF20FB
:103BC00000F002FC0821F32000F0FEFB0120294652
:103BD00000F0FAFB02204FF4E06100F0F5FB032057
:103BE00041F2300100E035E200F0EEFB08205146E2
:103BF00000F0EAFB0820194600F0E6FB002109204E
:103C000000F0E2FB00210A2000F0DEFB0021102082
:103C100000F0DAFB0521112000F0D6FB0021122074
:103C200000F0D2FB0021132000F0CEFB3220FCF785
:103C3000E1FF102041F2B02100F0C6FB3220FCF77A
:103C4000D9FF0721112000F0BFFB3220FCF7D2FF83
:103C50008B21122000F0B8FB3220FCF7CBFF1320A1
:103C60004FF4B85100F0B0FB3220FCF7C3FF222123
:103C7000292000F0A9FB0021302000F0A5FB312015
:103C8000594600F0A1FB3220394600F09DFB40F27E
:103C9000071100E047E0352000F096FB08213620B0
:103CA00000F092FB0021372000F08EFB40F202234F
:103CB0003820194600F088FB39204FF4837100F05A
:103CC00083FB3C20194600F07FFB3D204FF48161CF
:103CD00000F07AFB3220FCF78DFF0021502000F02D
:103CE00073FB00E0FFE0EF21512000F06DFB0021AD
:103CF000522000F069FB5320314600F065FB602044
:103D00004FF4274100F060FB0121612000F05CFBD3
:103D10003321902000F058FB0B212B2000F054FBA6
:103D200040F23311F8E50A2020700021EA2000F06B
:103D30004BFB2021EB2000F047FB0C21EC2000F096
:103D400043FBC421ED2000F03FFB4021E82000F0C0
:103D50003BFB3821E92000F037FB0121F12000F086
:103D600033FB1021F22000F02FFBA321272000F0CD
:103D70002BFB0121402000F027FB0021412000F017
:103D800023FB0021422000F01FFB1021432000F004
:103D90001BFB0E21442000F017FB2421452000F0DE
:103DA00013FB0421462000F00FFB5021472000F0B8
:103DB0000BFB0221482000F007FB1321492000F0F3
:103DC00003FB19214A2000F0FFFA19214B2000F0D3
:103DD000FBFA16214C2000F0F7FA1B21502000F0CE
:103DE000F3FA3121512000F0EFFA2F21522000F098
:103DF000EBFA3F21532000F0E7FA3F21542000F076
:103E0000E3FA3E21552000F0DFFA2F21562000F082
:103E1000DBFA7B21572000F0D7FA0921582000F067
:103E2000D3FA0621592000F0CFFA06215A2000F0DB
:103E3000CBFA0C215B2000F0C7FA1D215C2000F0BA
:103E4000C3FACC215D2000F0BFFA18211B2000F03E
:103E5000BBFA01211A2000F0B7FA1521242000F046
:103E6000B3FA5021252000F0AFFA8B21232000F077
:103E7000ABFA3621182000F0A7FA0121192000F032
:103E8000A3FA0021012000F09FFA88211F2000F0F2
:103E90009BFA3220FCF7AEFE80211F2000F094FA3E
:103EA0003220FCF7A7FE90211F2000F08DFA32206F
:103EB000FCF7A0FED0211F2000F086FA3220FCF78C
:103EC00099FE0521172000F07FFA0021362000F02E
:103ED0007BFA3821282000F077FA3220FCF78AFE9E
:103EE0003C212820D5E14FF0DE460E202070CF2067
:103EF000308000202880C120288030202880ED20BC
:103F0000308064202880032028801220288081208F
:103F10002880E820308085202880102028807A2082
:103F20002880CB203080392028802C202880002039
:103F300028803420288002202880F720308020200C
:103F40002880EA203080002028802880C02030800F
:103F50001B202880C120308001202880C52030808F
:103F6000302028802880C7203080B7202880362045
:103F70003080482028803A20308055202880B12089
:103F80003080002028801A202880B62030800A2027
:103F90002880A2202880F22030800020288026203F
:103FA000308001202880E02030800F2028802A20C7
:103FB000288028202880082028800E20288008209B
:103FC000288054202880A9202880432028800A2087
:103FD00028800F20288000202880288028802880A2
:103FE000E12030800020288015202880172028809C
:103FF0000720288011202880062028802B20288058
:10400000562028803C2028800520288010202880E9
:104010000F2028803F20288028800F2028802B20F8
:104020003080002028802880012028803F202880A0
:104030002A2030800020288028802880EF202880B7
:10404000112030807820FCF7D5FD29203080002019
:1040500000F02EF9608847287ED10B2020700821BF
:10406000422000F0B1F9B421462000F0ADF943211F
:10407000472000F0A9F91321482000F0A5F94721B5
:10408000492000F0A1F914214A2000F09DF93621C1
:104090004B2000F099F903214C2000F095F94621BE
:1040A0004D2000F091F905214E2000F08DF91021EE
:1040B0004F2000F089F90821502000F085F90A21ED
:1040C000512000F081F90021022000F07DF900214B
:1040D000032000F079F90021042000F075F9EF21A8
:1040E000052000F071F90021062000F06DF9002193
:1040F000072000F069F90121082000F065F93F214F
:10410000092000F061F90A20FCF774FD0621012066
:1041100000F05AF9C821162000F056F99521232005
:1041200000F052F99521242000F04EF9FF212520BE
:1041300000F04AF90221272000F046F90221282048
:1041400000F042F90221292000F03EF902212A2044
:1041500000F03AF9022100E09DE02C2000F034F953
:1041600002212D2000F030F901213A2000F02CF935
:1041700001213B2000F028F9F0213C2000F024F937
:1041800000213D2000F020F91420FCF733FD3821F8
:10419000352000F019F97821362000F015F9382182
:1041A0003E2000F011F90F21402000F00DF9F02120
:1041B000412000F009F90021382000F005F94921DB
:1041C000192000F001F90A21932000F0FDF80A20DF
:1041D000FCF710FD2021084600F0F6F803211D2011
:1041E00000F0F2F800211E2000F0EEF809211F2057
:1041F00000F0EAF85321442000F0E6F810214520B1
:1042000000F0E2F80A20FCF7F5FC04211C2000F085
:10421000DBF81420FCF7EEFC8021432000F0D4F8FA
:104220000520FCF7E7FC0A211B2000F0CDF8282030
:10423000FCF7E0FC12211B2000F0C6F82820FCF758
:10424000D9FC7F21902000F0BFF80421262000F047
:10425000BBF82820FCF7CEFC2421262000F0B4F87F
:104260002C21262000F0B0F82820FCF7C3FC082100
:10427000702000F0A9F83C21262000F0A5F80221CA
:10428000572000F0A1F80021552000F09DF80021F2
:10429000572000F099F8BDE8F05F3220FCF7AABC87
:1042A0004FF0DE4108800148008870470008006F29
:1042B000114810B500780E281CD13620A82100F036
:1042C00083F84FF0DE422A20108000210B48018045
:1042D0000180012101803F2101802B2111800021DB
:1042E000018001800180EF21018005A0BDE8104020
:1042F00002F040B810BD0000380000200008006F38
:104300007A0D0A000B46194910B5A0F23F10404241
:10431000097884B2091F0A2906D2DFE801F00C0CE3
:1043200005050505131305252020194600F04CF856
:104330002120214614E04E20194600F045F84F2078
:1043400021460DE0190A022000F03EF8032019462C
:1043500000F03AF8210A062000F036F8072021463E
:10436000BDE8104000F030B810BD0000380000205B
:1043700070B5B0F5A07F14460A4620D2F02A1ED2AE
:104380000F4909780E2908D01146FFF7BBFF2146D7
:10439000BDE87040222000F017B84FF0DE452A211A
:1043A0002980030A07490B80C0B208802B2028808F
:1043B000100A0880D0B208802C2028800C8070BDA4
:1043C000380000200008006F4FF0DE4210800148E6
:1043D000018070470008006F0349044A31F810104B
:1043E00052F820000183704730700008140000204C
:1043F0000349044A31F8101052F8200041837047F5
:104400003070000814000020054A044932F81020DA
:1044100051F820004169514041617047140000206B
:10442000307000082DE9FF41174C174D7035226898
:104430000121002022F4803222602F681F23134EB6
:10444000032227F001072F608DF808308DF80F0048
:104450008DF80B208DF80E008DF800108DF80D10E2
:104460008DF80A0001968DF801008DF809008DF88D
:104470000C006846FCF756FE05202860206840F4D2
:1044800080302060BDE8FF8124ED00E000000120C5
:10449000224830B587B0016841F00201016001682F
:1044A00001F002010591016841F01001016001680D
:1044B00001F010010591016841F0200101600068E0
:1044C0000022174D202100F0200005902846FCF71F
:1044D000A6FC012100202024CDE90041CDE90210F5
:1044E00069462846FCF798FB0E4869460094FCF79D
:1044F00093FB1020694600902846FCF78DFB402076
:10450000009009486946FCF787FB0920694600903E
:104510002846FCF781FB07B030BD0000E04402589C
:1045200000040258001002580014025870B51548D3
:10453000FDF7ACFC012214481102FCF770FC114895
:104540000021124C0722D50704606304C3614FF0B9
:104550008063816041611C110161C0E90A1201623E
:1045600041628163456544608361C2604163FDF7D8
:10457000EDFB002805D0BDE87040502104A001F0FB
:10458000F8BE70BD840100200000025800300140D8
:104590007370692E630000001048002110B50E4CA6
:1045A0000C224FF4E1330460C0E90131C160C0E97D
:1045B00004128161C161016241628162C162016371
:1045C0004163FDF7AEFE002805D0BDE8104046214E
:1045D00003A001F0CEBE10BD001001400401002078
:1045E00075736172742E6300FEE77047F8B55D4D18
:1045F000A8684069804702280DD0042876D15AA0C7
:1046000001F0B8FE0020FFF7FFFEA868806801B047
:10461000BDE8F0400047A8685249891CC268554867
:1046200090476888002861D04E49042251480C31D7
:10463000FBF7A3FE002859D169884FA001F09AFE2C
:104640000120FFF7E1FE4EA001F094FE494C2079D5
:10465000F02802D0FF2806D00CE06079FFF7C8FEF2
:1046600061794AA004E06079FFF7B6FE61794AA05B
:1046700001F080FE217B0820F02938D04A490880CB
:104680004AA000BF01F076FE607B80B14AA001F035
:1046900071FE40F21F563046FEF738F9354A4FF4A6
:1046A00078430096A17B0F32607BFCF775FA3148A6
:1046B0001421FBF757FE502323704F2262704E21C6
:1046C000A1704720E07002F09FFCA888010AA17148
:1046D000E071002000F05EF94FF001064FF0000796
:1046E00050B138A001F046FE267206E039E02E49AE
:1046F000891E088035A0C5E72772032000F04AF91B
:1047000020B135A001F036FE667200E0677202202B
:1047100000F040F920B132A001F02CFEA67200E0BA
:10472000A772012000F036F920B12FA001F022FE7F
:10473000E67200E0E772A888B4EE001B00EE100AF3
:104740002BA0B8EE400B20EE010B53EC102B01F028
:1047500011FEA8686988026901B00648BDE8F0400A
:104760001047F8BD0000002053656E7420504F4E76
:10477000470D0A00F000002025640D0A000000002B
:104780004765742050494E470D0A00004C454420AF
:104790004F6E2025640D0A004C4544204F6666206C
:1047A00025640D0A000000001A0402584265657075
:1047B000206F66660D0A00005772697465204C43CD
:1047C000440D0A004B4559300D0A000042656570E2
:1047D000206F6E0D0A0000004B4559310D0A000094
:1047E0004B4559320D0A00004B4559330D0A000064
:1047F0004C4D3735412074656D703A2025322E338B
:10480000660D0A00704700002DE9FF5F9B46894650
:10481000804611466846FCF7E3F900254FEA0D0A89
:104820005FF0000409EB05061AF80570C4F10700F3
:10483000B1B227FA00F0C00708EB040080B201D043
:104840005A4600E00E9AFFF793FD641CA4B2082CB0
:10485000ECD36D1CADB2102DE2D3BDE8FF9F00007C
:1048600006480749016007494160074981600749D7
:10487000C16007490161074941617047A4020020F6
:10488000854E0008535A0008215B0008714E00084D
:104890000D5B00088D59000810B5026840F26B33BB
:1048A0005169946944F0080494610268946944F081
:1048B000100494610268146824F001041460026812
:1048C00014699C4314610268936823F44043936025
:1048D00090F88120042A0CD08A060AD5D0F88420CA
:1048E00042F08002C0F884200268936943F02003FC
:1048F000936190F88120032A0CD04A060AD5D0F89B
:10490000842042F00402C0F884200268936943F0D6
:10491000400393618A050AD5D0F8842042F0010251
:10492000C0F884200268936943F400739361C90559
:104930000AD5D0F8841041F00801C0F8841001684D
:104940008A6942F480728A610021A0F86210A0F89E
:104950006A1010BD2DE9F041984616460D460746EF
:10496000069C0BE0601C09D02CB1FCF75DFAA0EBB3
:104970000800A04202D90320BDE8F08138684069F0
:1049800035EA000004D00020B042EBD00020F3E76D
:104990000120F9E70349044A31F8101052F82000C9
:1049A000FCF734BA507600083C0000207047000045
:1049B0000D4810B5C16991F8272091F8300002F038
:1049C000070210F006034FEAD01402F1010200D0F2
:1049D000012391F83210224402241A4404EAD00040
:1049E0001144084410BD000058000020054A00236F
:1049F00030B454890C8053810A8830BC0249FBF7DB
:104A000098BC0000580000202C0300202DE9F05F26
:104A1000D54C0127DFF854934FF000082046D44DC1
:104A20004FF0050B4FF0200A62783E46C0690C2A11
:104A300000F140017ED2DFE802F07D065994F2F1E8
:104A4000F0EFEEEDECEB90F83020D20601D54C22E1
:104A500000E00C2280F84020E12280F84120022270
:104A6000402001F06FF8052000F0CAF9BF484FF46C
:104A70008071FBF777FCFFF79BFF00EE900ABA48C6
:104A8000B2EE002B3830B8EE603B90ED010A9FED9E
:104A9000B91B23EE022BB8EE400B82EE003B23EE57
:104AA000010B01F09DFCB7EE001BA02130EE010BC5
:104AB000BCEEC00B10EE100A80B200EB500020627A
:104AC0006062286820616061E06980F835103520F7
:104AD00001F032F884F80280022184F8038084F81F
:104AE000048084F80580A4F80A8008E100F0A4FF9F
:104AF000012804D1A07810B9A6702868606100F080
:104B00008DFF012813D1A07888B1E07878B9E670DC
:104B100000F054F984ED0C0B00F030F9A06200F0C5
:104B200061F9E07103202968216161616070A078FA
:104B3000E17800E08CE088430DD028686169626A02
:104B4000401A904207D96670E069407B40F020012E
:104B50000D2000F0F1FFE078A1782279084310439E
:104B60003DE06089B0F5807F01D90620F1E000F0DA
:104B70004FFF01282ED16089617908430DD1E0698A
:104B800090F83010090605D5774801210A3000F069
:104B90005BFF02E090F832006081E1696089627930
:104BA00091F83510801A01F03F0188420BDD09EBC6
:104BB000020000F049FFE069617990F8350000F0EB
:104BC0003F00084405E0C1B209EB020000F03CFFE1
:104BD000A07A607100F00EFF012802D0207970B336
:104BE000BEE02868042520616189607951EA0002ED
:104BF00003D0091A4844C9B21AE0E06990F83010AD
:104C000009060DD5584801210A3000F01DFF0AE0C1
:104C1000A3E0A0E075E050E038E02BE01DE018E0F4
:104C200090F832006081A17A60790A1A4844D1B2C2
:104C300000F00AFFA07A60712671657090E0FFE7CE
:104C400028682169226A401A904201D984F801B08B
:104C500086E0022784F805800AE084F80580A4F83D
:104C60000A80407B40F020010D2000F065FF032703
:104C7000667075E084F80580A4F80A80407B40F0F7
:104C800020010D2000F058FF0627F1E780F8406072
:104C9000022280F841A0402000F054FFE0699821F2
:104CA00080F83510352000F047FF032000F0A8F809
:104CB0000821617084F8068052E000F0B5FE0128FA
:104CC0004ED1E06990F83000000604D52648012155
:104CD0000C3000F05BFFA089411E3F2901D82070F5
:104CE00002E0504684F800A0C1B2204800F04EFF18
:104CF000A079092122781044A0712868A061617010
:104D00002EE000F085FE90B9A289A0792178121AD0
:104D10008A4206DD484400F039FFA0792178084432
:104D200004E04844D1B200F031FF207BA07100F0D4
:104D300061FE012806D129680A20A1616070012066
:104D400000F05EF82868A169401AB0F57A7F07D9AB
:104D50000B20607004E0042700E0052784F8018040
:104D60003846BDE8F09F0000580000202C030020CA
:104D70004C0000200000000000408F4010B50C4C9B
:104D800002221B20E1691B3100F00EFEE0699FED5D
:104D9000091BB0F81B0040BA00EE100AB8EE400B39
:104DA00020EE010BBDEEC00B10EE100A10BD00008E
:104DB000580000200000000080844E4010B5084CD0
:104DC0001120E169113100F0EBFDE069BEEE001B3E
:104DD000407C00EE100AB8EE400B20EE010B10BD37
:104DE0005800002010B5054C0C20E1690C3100F092
:104DF000D7FDE069007B400910BD0000580000208D
:104E000070B50F4C0546E069407820F0F80121723A
:104E100000208D4213D0032D00D10120617A8842F9
:104E200002D0607200F0B7FEE069417801F0F8014D
:104E300029434170BDE87040012000F07DBE70BD87
:104E400058000020014948707047000058000020B9
:104E500010B5054C0A46A18101460448FBF769FAE2
:104E60000720607010BD0000580000202C030020B7
:104E7000034A12780AB100F0CFB8FFF7B7BD0000BF
:104E80005000002010B5184986B016480860174930
:104E9000086000F03DF800F0DCFD0620694600F0F7
:104EA0007FFD9DF8001012A001F064FA9DF800202B
:104EB00011A101A801F06EFA4FF47A7405E00FA079
:104EC00001F058FA204600F067FE9DF800006C28BB
:104ED000F5D10E490120087000F0CAFD00F0DAF8A3
:104EE00006B010BDBC02002074000020C0000020ED
:104EF00025780D0A000000002578000048617264E2
:104F00002053504920457272210D0A0050000020A4
:104F10000F4830B587B0016841F04001016000687A
:104F2000012400210B4D00F04000059060028DE847
:104F30001300694628460394FBF76EFE600369463A
:104F4000CDE9000428460394FBF766FE07B030BDA8
:104F5000E04402580018025810B5064C1D20216884
:104F60001D3100F01DFD20680349407FC0F3420061
:104F7000C87110BDC0000020D000002010B50F4C3B
:104F8000032206202168891D00F00EFD20689FED98
:104F90000C1B0D498279C379047A100440EA03207E
:104FA000204300EE100AB8EE400B20EE010BBCEEE1
:104FB000C00B81ED000A10EE100A10BDC0000020E9
:104FC0000000000080844E40D000002010B5104C3E
:104FD00009202168093100F0E3FC21684D204C31A3
:104FE00000F0DEFC22680B49507A03060CD592F8DB
:104FF0004C2020F0F000D243520703D0801C0871EF
:1050000040B210BD401DFAE720F0F000401EF6E768
:10501000C0000020D0000020044B30B40024DA8807
:105020000A80DC8030BC0249FBF783B9B000002065
:105030002C0400200148406970470000D000002087
:1050400010B5064C1D2021681D3100F0A9FC206818
:105050000349407F0009487110BD0000C0000020D6
:10506000D000002010B5064C1E2021681E3100F033
:1050700097FC20680349807F0009887110BD0000FB
:10508000C0000020D00000200148006970470000E7
:10509000D000002070B5264D0020287000F090FA56
:1050A000244C6F220120611C00F07EFC2969202025
:1050B0006F220873611C012000F044FD05F12004FB
:1050C000206800F06DFBA07900F000FCE07900F0B2
:1050D0007FFA207A00F038FB607900F0DFFB607A1D
:1050E00000F090FA40F2FF3000F01AFC207E00F051
:1050F00045FB012000F09EFA0F492068884207D93D
:10510000802000F0E9FA012000F0FCFA142006E00B
:10511000002000F0E1FA002000F0F4FA0E202071E7
:1051200000F060FBBDE87040012000F0B3BA000061
:10513000B0000020BC0200200057A6162DE9F84F51
:10514000F74C0027DFF8DC834FF00109DFF8D8A324
:1051500004F120054FF0020B4E4620780B287CD23C
:10516000DFE800F07B065099EFEEEDEC7BEBEA0018
:10517000012000F08FFA20699D214174112000F078
:10518000DBFCE87A01282AD02169FF2081F824007D
:10519000206990F82410242000F0CEFC216902221E
:1051A000402081F83F7081F840703F3100F0CAFC28
:1051B000A87A012824D02069C17B41730D2000F01A
:1051C000BBFC052000F066FAD8484FF48071FBF76D
:1051D000C9F869696161DAF80010E1606BE0216982
:1051E000287B81F824001C201C3100F0D9FB2069A9
:1051F000007F00F03F0158F8210000F0D1FAC7E726
:105200000620DFE700F0F6FB012818D1DAF80000ED
:10521000E060E87A01280CD121691C201C3100F0E3
:10522000BFFB2069007F00F03F0158F8210000F02B
:10523000B7FA4021122000F07FFC0320207000F01C
:10524000EDFB01281BD1DAF80000E060E87A0128C4
:105250000ED121691C201C3100E02EE000F0A0FBE3
:105260002069007F00F03F0158F8210000F098FA13
:105270000221122000F060FC00F094F96070A87A1E
:1052800001281AD1DAF80000E1686269401A9042F8
:1052900013D904200CE121691220123100F080FBA7
:1052A0002069807C80060CD52021122000F044FC6F
:1052B000A87A012802D084F800B06AE184F800904E
:1052C00067E11920694600F06BFB9DF800000106BC
:1052D00005D5C043401CC0F38500404200E0800873
:1052E000904920719248F0399FED920B2A68B2EEF6
:1052F000041B824294F9040024D2002811DA6A794E
:10530000B0EE402B00EE900A01EBC200B1EE003B84
:10531000B8EEE04B90ED000B00EE012B32EE030BEC
:1053200023E021691A201A3100F03AFB20697D4AF6
:105330006979A03A807E25E01DE104E1FEE0CCE041
:1053400078E075E0002813DA6A79B0EE412B01EEBF
:10535000900A01EBC200B1EE083BB8EEE14B90EDD4
:10536000001B01EE020B30EE030B30EE040B13E0DA
:1053700021691A201A3100F013FB2069694A697902
:10538000503A807E02EBC10100EE100A91ED001B45
:10539000B8EE400B31EE000B84ED060BA87A012825
:1053A00020D021691020103100F0FAFA687A012823
:1053B0002ED021691320133100F0F2FA2069C17C4C
:1053C000E180017C41730D2000F0B6FB2069C17CB7
:1053D000564800F039FBA87A012826D084F800B09E
:1053E0000226D6E02069C17B41730D2000F0A4FBAA
:1053F000687A012808D021691320133100F0D0FA0F
:105400002069C17CE180E3E7206990F82210F9E788
:10541000206990F82210E180017C41730D2000F09A
:105420008BFB206990F82210D2E784F80090D7E730
:10543000032643E7012000F02DF9E87A012839D04E
:105440002069F721417480F82470206990F82410B5
:10545000242000F071FB2069417C112000F06CFBDE
:105460002069217A80F82210222000F065FB206953
:10547000394687730E2000F05FFB2069817B417302
:105480000D2000F059FB206990F82210274800F009
:105490007DFB21694122402081F83F20022281F8D2
:1054A00040003F3100F04EFB032000F0F3F80620EF
:1054B00020706EE02169F5204874287B81F8240073
:1054C0001C201C3100F06CFA2069007F00F03F01C5
:1054D00058F8210000F064F9B7E700F08BFA0128D2
:1054E00005D10821122000F027FB0720207000F0D2
:1054F00095FA01284DD1E87A01280CD121691C20A8
:105500001C3100F04DFA2069007F00F03F0158F88F
:10551000210000F045F90221122000F00DFB38E0D7
:10552000B0000020487700084C0000202C04002028
:10553000008F42330000000000C065C0012000F071
:10554000A9F8042624E0012000F0A4F82069FA213B
:105550004174112000F0F0FA21690222402081F804
:105560003F7081F840703F3100F0ECFA072000F006
:1055700091F80A209CE700F057FA012809D104218C
:10558000122000F0D9FA00F057FA012804D00726BB
:1055900027703046BDE8F88F0121122000F0CCFAC8
:1055A00008268BE610B5054C0C2021690C3100F063
:1055B000F7F92069007B400910BD0000B000002011
:1055C000024801694220413100F0EAB9B0000020F0
:1055D00070B50A4D04461D2029681D3100F0E0F920
:1055E0002868417F01F0F10141EA4401C9B24177E5
:1055F0001D2000F0A1FA0248C47170BDC000002057
:10560000D000002070B5094D04461D2029681D31C9
:1056100000F0C6F92868417F01F0FE01214341777F
:105620001D2000F089FA0248447270BDC0000020BD
:10563000D000002070B50A4C05462620216826318E
:1056400000F0AEF9206890F8261001F0F70141EA69
:10565000C50180F82610BDE87040262000F06CBA25
:10566000C000002070B50A4D044631202968303151
:1056700000F096F9286890F8301001F0F801214305
:1056800080F83010BDE87040312000F055BA0000BD
:10569000C000002070B50F4C05462069407820F00E
:1056A000F801A17000208D4213D0032D00D10120FC
:1056B000E178884202D0E07000F06DFA206941780C
:1056C00001F0F80129434170BDE87040012000F06D
:1056D00033BA70BDB000002070B5094D04460920F2
:1056E0002968093100F05CF92868417A01F07F01EE
:1056F00021434172BDE87040092000F01DBA00004E
:10570000C000002070B50F4C05464D2021684C317B
:1057100000F046F921680920093100F041F92168BB
:10572000487A00060BD51DB15FF0870081F84C0068
:1057300091F84C104D20BDE8704000F0FDB9842078
:10574000F4E70000C000002070B50A4D04461E209A
:1057500029681E3100F024F92868817F01F0FB01DF
:1057600041EA840181771E2000F0E6F902480472C4
:1057700070BD0000C0000020D000002010B504461D
:1057800005482146006880F82240222000F0D4F924
:105790000248047610BD0000C0000020D0000020A8
:1057A00000EE100A9FED0B1B0C49B8EE400B086091
:1057B00080EE012B0A480168BCEEC20B10EE100A05
:1057C000020C8A71030ACB71032208720620891D1C
:1057D00000F0B8B90000000080844E40D0000020E6
:1057E000C000002070B5224D044609202968093107
:1057F00000F0D6F829684D204C3100F0D1F8286827
:10580000417A0A0626D590F84C3087229A4303D075
:10581000022C0CDA02240DE0052C01DA052402E04A
:10582000142C00DD1424621F41F0700105E0112CDE
:1058300000DD1124A21E41F0700102F00F0201F000
:10584000F001114341720920C9B200F075F909480D
:10585000047170BD4FF0FF32944201DA144602E049
:105860000E2C00DD0E24621C41F07001E5E7000003
:10587000C0000020D00000200149087070470000DF
:10588000B00000200149486170470000D0000020AE
:105890000149887270470000D000002070B5094DA2
:1058A00004461D2029681D3100F07AF82868417FE0
:1058B00064F31F11C9B241771D2000F03DF9024881
:1058C000447170BDC0000020D000002070B50C28CD
:1058D000044601D90C2408E0062C02D24FF006043D
:1058E00000E002D14FF0050001E04FF00300FFF7A8
:1058F000B9FE094D1E2029681E3100F051F82868B4
:10590000817F64F31F11C9B281771E2000F014F962
:105910000248847170BD0000C0000020D00000204B
:1059200070B50C4D022204461E2029681E3100F07D
:105930003BF82968032000EA142311F81E2F02F017
:10594000FC00184308704C700222BDE870401E2015
:1059500000F0F8B8C0000020074A10B5064CD27A13
:10596000203C02B1FF2121818AB201460348FAF7A7
:10597000E0FC0520207010BDD00000202C04002089
:105980000149086170470000D000002003480078FA
:1059900008B1FFF7D3BBFFF739B800005000002073
:1059A000012200F001B800002DE9F041DFF840804D
:1059B0004FF4807715460E4600220446394640468D
:1059C000FBF72DFA04F07F0000F0E8F8002405E072
:1059D000002000F0E3F8611C3055CCB2AC42F7D3A4
:1059E00039464046BDE8F0410122FBF718BA0000F5
:1059F0000000025804480078002804D003484FF4FF
:105A00000071FBF703BA704700000020001802582D
:105A100001482021FBF7FAB9000C02580148802107
:105A2000FBF7F4B9000C025802484FF40061FBF791
:105A3000EDB90000000C025802484FF40041FBF79A
:105A4000E5B90000001002580A4601460020FFF7A1
:105A5000ABBF012010B500F04DF80120FBF7CAF8EC
:105A6000002000F047F8BDE810400620FBF7C2B860
:105A70001D4970B54A78824234D01C4D00281C4C18
:105A8000487008704FF0000018D0FFF703FE286838
:105A9000417841F080014170012000F04DF8012073
:105AA000FFF7F8FD29680020022281F83F0081F805
:105AB000400040203F3100F045F80CE0FFF7EAFDE0
:105AC0002868417801F07F014170012000F034F82E
:105AD0000120FFF7DFFD611CBDE870406F2201204F
