:020000040800F2
:10400000280F002045410008F1570008C555000859
:10401000EF570008D548000859820008000000004A
:10402000000000000000000000000000F75F000832
:10403000B54F000800000000B95A0008CD7800080C
:104040005F4100085F4100085F4100085F410008D0
:104050005F4100085F41000879500008ED500008FA
:10406000255100085F4100085F410008C14C00086D
:104070005F4100085F4100085F4100085F410008A0
:104080005F4100085F4100085F4100085F41000890
:10409000198200085F4100085F4100085D51000877
:1040A0005F4100082D7900085F4100085F4100086A
:1040B0005F4100085F4100085F4100085F41000860
:1040C0005F4100085F4100085F4100085F41000850
:1040D0005F4100085F410008897E00085F410008D9
:1040E000B15000085F4100085F4100085F410008CF
:1040F0005F4100085F4100085F4100085F41000820
:104100005F4100085F4100085F4100085F4100080F
:104110005F4100085F4100085F4100085F410008FF
:104120005F4100085F4100085F4100085F410008EF
:10413000DFF80CD000F06EFB0048004765860008F1
:10414000280F00200648804706480047FEE7FEE7A4
:10415000FEE7FEE7FEE7FEE7FEE7FEE7FEE7FEE737
:10416000DD7800083141000840EA01039B0703D0D5
:1041700009E008C9121F08C0042AFAD203E011F8A6
:10418000013B00F8013B521EF9D27047D2B201E068
:1041900000F8012B491EFBD270470022F6E710B54C
:1041A00013460A4604461946FFF7F0FF204610BDA5
:1041B00030B505460020034600E05B1C934205D263
:1041C000EC5CC85C201A01D1002CF6D130BD2DE981
:1041D000FE4F804681EA0300C00F0C46009021F09C
:1041E000004123F00045B8EB0200A94105D240464A
:1041F000214690461C460B46024623F000401043E1
:1042000004D14046214603B0BDE8F08F270DC7F327
:104210000A00C3F30A510290401A0190402866DA5E
:10422000C3F3130040F4801B0098924620B1002392
:10423000D2EB030A63EB0B0B01985946C0F1400225
:10424000504600F0FEF906460D4650465946019A82
:1042500000F016FA10EB08006141002487EA1152C1
:1042600084EAE7731A433BD0009A3AB3019A012AD1
:104270004FEA075210DC001B61EB02014FF00042D5
:1042800002EA0752CDE90042001C41F58011324696
:104290002B4600F014FAB6E7001B61EB0201001C8C
:1042A00041F5801300185B412018A2F5001747EB79
:1042B000030140EAD570B6196D4111E06D084FEA6F
:1042C000360645EAC0754FEA0752001B61EB020152
:1042D000001C41F5801149084FEA30000019514196
:1042E00032462B4603B0BDE8F04F00F0DBB9009832
:1042F000012240000023D0EB020263EBE073009840
:1043000021464FEAE074B8EB000061EB0401E9E7F5
:1043100083F000435BE781F0004158E72DE9FE4F51
:1043200081EA030404F0004421F0004100944FF0BE
:10433000000B23F0004350EA010402D052EA0304C8
:1043400004D10020014603B0BDE8F08FC3F30A5446
:10435000C1F30A552C44A4F2F3340194A0FB025497
:10436000C1F3130141F48011C3F3130343F4801329
:1043700001FB024400FB034E840A970A44EA81547D
:1043800047EA8357A4FB076802958D0A05FB07855A
:104390004FEA932C04FB0C542705029D4FEA065864
:1043A00047EA1637B5EB08056EEB070C870E920E41
:1043B00047EA811742EA8312A7FB0201B6EB0B0121
:1043C00064EB00042B0D43EA0C335E1844EB1C50E5
:1043D000DA465146E7FB0201C5F313044FEA0B33FB
:1043E00043EA14534FEA0432019C43EA0603A4F162
:1043F0000C040294009CCDE900B400F060F9A2E73F
:104400002DE9F04D81EA030404F0004B21F0004552
:1044100014464FF0000A23F0004150EA050220D074
:1044200054EA01021DD0C5F30A570246C5F313032F
:10443000C1F31300C1F30A5640F4801543F480130E
:10444000A7EB0608101BD64608F2FD3873EB0500F3
:1044500002D308F1010801E092185B41B8F1000FA6
:1044600003DA00200146BDE8F08D00204FF48011F2
:10447000064684460EE0171B73EB050705D3121B97
:1044800063EB050306434CEA010C49084FEA300090
:1044900092185B4150EA0107EDD152EA030012D0B5
:1044A00082EA040083EA0501084303D100224FF0A9
:1044B000004308E0101BAB4102D20122002302E0BE
:1044C0006FF0010253101AEB06004CEB085110EB91
:1044D0000A0041EB0B01BDE8F04D00F0E3B870B508
:1044E00021F0004303430CD0C1F30A550024D5EB5F
:1044F000040564EB0403D617AD1AB34102DB0020B8
:10450000014670BD201841EB025170BD0EB5C10FC0
:1045100080EAE0700844CA07002140F233438DE886
:104520000E000A460B4600F0CAF803B000BD0EB5F7
:1045300040F2334102910021CDE900110A460B46B9
:1045400000F0BDF803B000BD70B5C1F30A5201F030
:1045500000450024C1F3130140F2FF3341F4801100
:104560009A4201DA002070BD40F233439A42A2F22F
:10457000334203DC524200F073F800E090402C43D9
:10458000F1D0404270BDC1F30A5210B5C1F313011E
:1045900040F2FF3341F480119A4201DA002010BD4D
:1045A00040F233439A42A2F2334203DC524200F01B
:1045B00057F810BD904010BD30B5002904DB4FF016
:1045C0000044404264EB0101002B04DB4FF0004447
:1045D000524264EB03038B4208BF824230BD0000AD
:1045E0002DE9F05F0546002092469B468846064628
:1045F000814640241BE0284641464746224600F0BB
:104600002FF853465A46C01A914110D31146184606
:10461000224600F016F82D1A67EB01084F46224695
:104620000120002100F00DF817EB00094E41201E7B
:10463000A4F10104DFDC484631462A464346BDE882
:10464000F09F202A04DB203A00FA02F10020704794
:104650009140C2F1200320FA03F3194390407047C0
:10466000202A04DB203A21FA02F00021704721FAC7
:1046700002F3D040C2F1200291400843194670472E
:10468000202A06DBCB17203A41FA02F043EAE07316
:1046900006E041FA02F3D040C2F120029140084303
:1046A0001946704710B5002B08DA401C41F1000193
:1046B00092185B411A4301D120F0010010BD2DE991
:1046C000F04D92469B4611B1B1FA81F202E0B0FA88
:1046D00080F220329046FFF7B4FF04460F4640EACE
:1046E0000A0041EA0B0153465A46084303D12046CB
:1046F0003946BDE8F08D114653EA010015D0C8F1E6
:1047000040025046FFF7ACFF05460E46504659465C
:104710004246FFF796FF084301D0012000E0002049
:10472000054346EAE0762C4337430A984FEA445360
:10473000A0EB08004FEAD4240A304FF0000244EA0C
:1047400047544FEAD72502D500200146D1E701059D
:1047500010196941DDE9084500196941BDE8F04DCE
:10476000A0E700002DE9F041054621F000400C468D
:10477000284302D12846BDE8F081C4F30A5040F234
:104780003341884202DD28462146F4E740F2FE31FB
:10479000884210DC06DB4FEA043040EA155050EA4C
:1047A000053102D100200146E5E70F4804F0004141
:1047B00001430020DFE7A0F233404642C6F1400249
:1047C00028462146FFF73DFF0746884628462146F2
:1047D0003246FFF745FF43463A46FFF763FF32464E
:1047E000BDE8F041FFF72DBF0000F03F30B50029D4
:1047F00004DB4FF00044404264EB0101002B04DB7A
:104800004FF00044524264EB0303994208BF9042C8
:1048100030BD0000064C074D06E0E06840F00103A3
:1048200094E8070098471034AC42F6D3FFF784FCB5
:10483000B88D0008D88D000870B501EB020410F89F
:10484000015B15F0070301D110F8013B2A1106D1D5
:1048500010F8012B03E010F8016B01F8016B5B1EEF
:10486000F9D12B0705D40023521E0FD401F8013BC8
:10487000FAE710F8013B02F10202A1EB030303E0A7
:1048800013F8015B01F8015B521EF9D5A142D6D3A2
:10489000002070BD0D494FF47A720968B1FBF2F146
:1048A000B1F1807F10D221F07F424FF0E021521E03
:1048B0004A61074BF0221A7000228A6107220A61BE
:1048C00000B1012002F050BEFEE700000000002011
:1048D00023ED00E0FEE7C1B2000A40EA0120704784
:1048E0002DE9F84F0020ADF800004BF6BF7748F2F5
:1048F0008008484E40F68F79474D484C48F60F7A6D
:10490000DFF81CB12AE0088810F00F0028702FD0C3
:1049100004EB80000168ADF80010BDF80010090438
:104920000AD5016801EA090101603E48297800EBD7
:10493000810050F8040C8047BDF8000000060DD53A
:10494000287804EB8000016801EA0A01016036481A
:10495000297800EB810050F8040C80472F48443040
:1049600000685946ABF800000004CCD4BDE8F88FCD
:1049700020683080308800F030007080308800F48B
:10498000405030802068384080F4005080F0200093
:1049900040EA080020600888C00617D4216801EAB0
:1049A0000A01216000F010FE28E03188890401D559
:1049B00080F400507188C90628D47188890601D511
:1049C00080F0200040EA08002060CFE72068ADF8C2
:1049D0000000BDF80000000506D5206800EA0900C7
:1049E000206002F069FD09E0BDF800000004B5D5C3
:1049F000206800EA0900206001F02AF82068318868
:104A00003840C904D1D580F48050CEE780F0100042
:104A1000D3E700003E0000202C000020005C004096
:104A2000660000208400002068000020074901EB98
:104A300080000168490407D5016848F68F7211406B
:104A40004CF280021143016070470000005C00409E
:104A5000074901EB80000168490607D5016848F65F
:104A60008F72114048F2C00211430160704700008C
:104A7000005C0040054901EB8000016848F68F6248
:104A8000114048F28002114301607047005C004011
:104A9000124910B50A680628117801F07F0103D188
:104AA000012901D1537913B121290AD013E090785B
:104AB000222802D0212802D00DE0094904E009494A
:104AC00002E0032807D1084929B1002091615082F2
:104AD0008847002010BD022010BD000030000020DB
:104AE0002D4B0008054B0008114B0008014902F04E
:104AF000C7BD0000B0000020014902F0C1BD0000A8
:104B0000A8000020014902F0BBBD0000C000002049
:104B100008B1044870470449012009680882002050
:104B200070470000A400002030000020014902F07E
:104B3000A7BD0000B800002005490968C97804290C
:104B400001D900207047034A02EBC10102F098BD71
:104B500030000020F800002009B9002800D0022011
:104B60007047000006490968097801F07F01212992
:104B700001D10B2801D00220704700F075B8000069
:104B8000300000202A4810B5006800218172C172EF
:104B90002849C9794172002002F00CFB4FF40071E2
:104BA000002002F0CDFB1021002002F0A1FB182113
:104BB000002002F027FB5821002002F07BFB0020A0
:104BC000FFF758FF1C4890F82C10002002F02AFB39
:104BD000002002F05FFB4FF4C0642146012002F088
:104BE000AFFB4FF48271012002F00CFB4021012049
:104BF00002F018FBE100012002F034FB2146022004
:104C000002F09EFB4FF48C71022002F053FB402116
:104C1000022002F05FFB2021022002F069FB07491D
:104C200001200860BDE81040002002F0CBBA00006F
:104C300030000020868A0008C80000203C010020C7
:104C400004480068807A002802D0034905200860E3
:104C500070470000300000203C0100200149042082
:104C6000086070473C010020034804490068C07890
:104C7000086000207047000030000020A4000020E1
:104C80007047704710B500F083FC094800240068A5
:104C9000847200F035FF0748046007494FF43F4035
:104CA00008800449091F08600448046010BD000022
:104CB00030000020445C00403C0000203C0100200B
:104CC000704700002DE9F047DFF89480254F4FF042
:104CD0003009D8F8001001F11005088A0E7A08B9D9
:104CE000042E04D0AC88A04215D8042614E01E4837
:104CF000017861B11D4A002112681D4B92B203EB8D
:104D000042025160A7F800900121017023E00726BC
:104D1000102038801FE00226844200D90446A9688A
:104D2000204688478246002000F024FC01462246A7
:104D3000504603F093FA2146002002F0CBFA28886F
:104D4000001B2880688820446880A7F800900949E3
:104D50004FF440500880D8F800000672BDE8F08794
:104D6000300000204000002028000020505C00405F
:104D7000006000403E0000202DE9F047224EDFF8A1
:104D80008C803027346834F8100FA168A9B100B3C3
:104D9000A588854200D9054628468847814620884F
:104DA000401B2080608828446080002000F0C2FB07
:104DB00001462A46484600F06FFE208848B1144953
:104DC0004FF4405008800021084602F083FAA8F80A
:104DD00000702088A188884201D3032001E020B11F
:104DE000052031680872BDE8F08731680620087236
:104DF000084900200968084A89B202EB410148606D
:104E0000A8F80070EFE7000030000020400000200C
:104E10003E000020505C004000600040F8B55C4C53
:104E20005C4D09262068002729684278062A05D0AB
:104E3000AAB1082A4BD00A2A4ED069E0027852065D
:104E400066D18078012804D0022804D0032804D039
:104E50005EE0C96954E0096A52E0496A50E042885C
:104E6000A2BBC288022A53D102797ABB02785306C8
:104E700001D1838833B102F07F02012A04D0022AD3
:104E80000CD045E044493BE08A69407900219047D5
:104E9000E0B92068807A0028F4D139E0417901F046
:104EA0000F0001F070020B063C4951F8201003D5A9
:104EB000C1F30111090102E0C1F301310903384BCB
:104EC0001B78834224D90AB90029DBD120E000787D
:104ED00040061DD1334913E0027802F07F02012A17
:104EE00016D1827AA2B1428892B9027982B9C28877
:104EF000012A0DD18A6940790021904740B92A4999
:104F000031B120684782816100208847002006E097
:104F100029682068096940788847032807D02168F4
:104F20000A8AA2F57F43FF3B04D10E72F8BD2068C8
:104F30000672F8BD022809D042B10878000621D5D2
:104F4000C8880090824205D9088213E04FF008001B
:104F50000872F8BD0ED22868144B90F82C008242DB
:104F600001D21F7006E0B2FBF0F400FB142008B978
:104F700001201870286890F82C008882BDE8F8405D
:104F8000FFF7A0BE03200872094900030880F8BD9E
:104F90003000002034000020C5760008005C00408E
:104FA000A0000020597600089D7600082800002007
:104FB0003E0000207047000010B5204A204CA52874
:104FC0001CD05A2825D021785318491C21701870FC
:104FD000607820F08000607010782178884205D1D8
:104FE000607840F04000607002F03AFF207864285A
:104FF00003D12078A0F10100207010BD617841F04C
:105000008001617021780A4401F101012170107062
:10501000ECE76178090606D500202070607820F062
:105020004000607004E021780A44491C217010702F
:10503000607820F080006070D8E70000FC0200205B
:105040006801002010B5012000F084FA07490860CB
:1050500008684FF4827182B2054800F01DFDBDE87A
:1050600010404FF44051012002F0FCB860000020D5
:10507000540200207047000010B5012000F076F8BF
:1050800000280FD0084800210160084902E00268AA
:10509000521C026002688A42F9D3BDE81040012028
:1050A00000F05EB810BD000064010020FFFF0700A3
:1050B00010B54FF48064204600F058F800280FD057
:1050C000084900200860084802E00A68521C0A608B
:1050D0000A688242F9D32046BDE8104000F040B88B
:1050E00010BD000064010020FFFF070010B5022082
:1050F00000F03CF800280FD0084800210160084962
:1051000002E00268521C026002688A42F9D3BDE8DC
:105110001040022000F024B810BD000064010020FF
:10512000FFFF070010B5042000F020F800280FD082
:10513000084800210160084902E00268521C026030
:1051400002688A42F9D3BDE81040042000F008B894
:1051500010BD000064010020FFFF07007047000041
:10516000014908607047000014040140064A0146E6
:1051700000201268044B0A4014331B680B4202D013
:10518000002A00D001207047000401407047000051
:105190000149C860704700000020024070B5054614
:1051A0004FF43026304600F097F8042811D1094C0E
:1051B000206940F0020020616561206940F04000F4
:1051C0002061304600F088F8216941F6FD721140F7
:1051D000216170BD0020024008490420CA68D2073E
:1051E00001D001207047CA68520701D502207047DC
:1051F000C968C906FBD503207047000000200240A3
:105200000248016941F080010161704700200240BD
:1052100004490A6822F010020A600A6802430A6020
:105220007047000000200240F0B506464FF40057DA
:105230000D46384600F050F804280CD1064C206981
:1052400040F0010020613580384600F045F82169C2
:10525000BA1E11402161F0BD002002402DE9F84145
:10526000064600204FF4005700900D46384600F0E7
:1052700033F8042816D10C4C206940F0010020615D
:105280003580B846384600F027F8BF1E042806D1FE
:10529000B61C280C00963080404600F01DF82169AD
:1052A00039402161BDE8F88100200240034A1168BD
:1052B00001F03801014311607047000000200240F6
:1052C0000348024941600349416070472301674533
:1052D00000200240AB89EFCD00B50346FFF77CFF0D
:1052E00002E0FFF779FF5B1E012803D0002B00D1FD
:1052F000052000BD002BF4D1FAE70000F8B501212C
:10530000384800F0DBF8102046028DF80300364FD5
:10531000ADF80060032534468DF8025069463846E2
:1053200000F080F82146384600F0FBF82F4C30A002
:10533000217802F0A7FF2178304C79B330A002F039
:10534000A1FF4AF20C00ADF800006946204600F0CB
:1053500069F83146204600F0E4F80421204600F0C8
:10536000E0F80821204600F0DCF8B100204600F00B
:10537000D8F848208DF803008DF802500120ADF8D0
:1053800000006946204600F04DF84FF60C40ADF89D
:10539000000069461E4800F045F8F8BDFFE71DA073
:1053A00002F070FF3120ADF800006946204600F0A1
:1053B00039F80121204600F0B4F81021204600F011
:1053C000B0F82021204600F0ACF8C82003F036F9F0
:1053D0001021204600F0A7F82021204600F0A3F875
:1053E000DBE7000000043000001001404501002010
:1053F0004750494F2025640D0A0000000008014075
:10540000536C617665204750494F0D0A000000003B
:10541000000C01404D4153544552204750494F0D17
:105420000A000000F0B5CC78002204F00F03E40677
:1054300001D58C7823430C784FF00F0C4FF0010E00
:10544000DCB105680E880EFA02F42640A64210D19F
:1054500096000CFA06F725EA070703FA06F5CE7858
:105460003D43282E02D0482E02D002E0446100E0E5
:105470000461521C082AE5D305600A88FF2A1CD95A
:105480004468002202F108060EFA06F50E882E4046
:10549000AE420ED196000CFA06F7BC4303FA06F7AB
:1054A000CE783C43282E00D14561CE78482E00D1DD
:1054B0000561521C082AE5D34460F0BDF0B5144CD8
:1054C000002801DAE36900E06368450D2E0185B22A
:1054D000C0F30157B540C0F30342032F05D0C60205
:1054E0000AD503269640B34307E023F07062636851
:1054F00023F07063636002E0AB4343F0706201B17C
:105500002A43002801DAE261F0BD6260F0BD0000CC
:10551000000001400246002092680A4200D00120AB
:10552000704741617047016170470AB1016170477E
:10553000416170470549096889B201EBC00004491F
:1055400001EB4000008980B270470000505C0040D1
:10555000006000400549096889B201EBC0000449B8
:1055600001EB40008089C0F309007047505C0040A7
:10557000006000400449096889B201EBC00003499A
:1055800031F8100080B27047505C0040006000406D
:105590000A4810B50168001D0468001D006808185D
:1055A0000BD00822064900F03DF8054920460422A8
:1055B000BDE81040103100F035B810BDE8F7FF1F0E
:1055C00045000020FEE7000010B5134C2068017A6A
:1055D000022904D0042902D0062905D015E0FFF7DE
:1055E00071FB2068007A11E04178052909D1017822
:1055F000490606D1C07801F0E5FD08480068006A58
:105600008047074800688068804708202168087242
:10561000BDE8104000F052BA3000002038000020F1
:1056200034000020F0B500230A24302537261F4619
:1056300010E0B4EB107F02D905EB107C01E006EB23
:10564000107C01F813C001EB430C00015B1C8CF8CB
:105650000170DBB29342ECD3F0BD00002DE9F047BE
:1056600088B00121082000F079FA0121042000F01F
:105670005DFA0121042000F065FA0021042000F009
:1056800061FA0121022000F051FA0121022000F00C
:1056900059FA0021022000F055FA0121092000F0FA
:1056A0005DFAF320ADF81C0018208DF81F000320D0
:1056B0008DF81E0007A94548FFF7B4FEDFF810A1DA
:1056C000504602F061F940F2CF2509260024ADF8DA
:1056D0001450ADF81060ADF81640ADF8124004A9B2
:1056E000504602F037FB684602F02AFB6027ADF80F
:1056F00000704FF001084FF4B479ADF80280ADF8B6
:105700000690ADF808406946504602F009FA69462D
:10571000504602F04BFA0821504602F041FA0821A7
:10572000504602F083FA0121504602F017F9012198
:10573000504602F01DF901212648FFF7BFFEDFF8B1
:1057400098A0504602F020F9ADF81450ADF8106062
:10575000ADF81640ADF8124004A9504602F0FAFA2E
:10576000684602F0EDFAADF80070ADF80280ADF8D1
:105770000690ADF808406946504602F0D1F96946F6
:10578000504602F013FA6946504602F059FA69464B
:10579000504602F099FA0821504602F001FA082119
:1057A000504602F043FA0821504602F087FA0821D9
:1057B000504602F0BBFA0121504602F0CFF8012119
:1057C000504602F0D5F808B0BDE8F087000C014063
:1057D0000008004000081A00000400400248016868
:1057E00081F00401016070470C0801407047FEE73A
:1057F0007047704770B50F23C278017801244FF0CD
:10580000E025DAB1124A126802F4E062C2F5E06201
:10581000120AC2F10406D3404278B24086781E4094
:105820000C4B16433201CA54007800F01F018C4023
:10583000400905EB8000C0F8004170BD01F01F0079
:105840008440480905EB8000C0F8804170BD00002D
:105850000CED00E000E400E0024908430249086062
:10586000704700000000FA050CED00E0024A11400C
:10587000014302480160704780FFFF1F08ED00E010
:1058800070B52F4D296808784C78420606D000F094
:105890007F00012828D002282BD035E0092C06D023
:1058A000052C07D0032C0ED0012C14D02CE001F0D5
:1058B00051FF28E0C8787F282ED8887860BB888878
:1058C00050BB887A27E0C87801281DD18888D8B9CC
:1058D00001F05CFF17E0C878012815D1888898B9D5
:1058E000487A80060AD40FE00B2C0DD101F0A0FFFE
:1058F00009E0012C02D0032C03D005E001F036FEB4
:1059000001E001F055FF58B10E4920460968496988
:105910008847032802D018B108200DE009200BE0C9
:10592000094A062000211268084B92B203EB42029A
:105930005160074A302111802968087270BD00004B
:105940003000002034000020505C00400060004027
:10595000400000202DE9F047334CE0684069804763
:105960005027324D324E4FF049084FF04E094FF05C
:10597000470A022817D003280DD004282CD12DA0C7
:1059800002F080FC306880F020003060E0688068C1
:10599000BDE8F04700472F7085F8018085F8029038
:1059A00085F803A039E0E0681F49C268891C1F48D8
:1059B0009047608800280FD01B49042215311B48EE
:1059C000FEF7F6FB50B11849042210311748FEF7D4
:1059D000EFFB002800D12070BDE8F08718A002F08E
:1059E00051FC306880F0100030602F7085F8018025
:1059F000164885F8029085F803A00D2100F8061BD3
:105A00000E22A91DFEF7B0FB104802F007FC074963
:105A100010221831281DFEF7A7FBE0681421026947
:105A2000BDE8F0470148104744010020D40200209F
:105A30000C08014053656E742050494E470D0A0012
:105A400047657420504F4E470D0A00006003002048
:105A500010B50F4C2068007A022811D004280FD00E
:105A6000032804D0052802D0072805D008E0FFF756
:105A700083F92068007A04E006480068C06880471F
:105A8000082021680872BDE8104000F017B8000037
:105A90003000002034000020064B521C520803EB5B
:105AA000410105D031F8043B20F8023B521EF9D1E8
:105AB0007047000000600040704700000C4810B5BF
:105AC00090F82C10002001F0ADFB0A480068007A25
:105AD000082802D0092809D006E007494FF4805071
:105AE0000880064910200880002010BD012010BD4C
:105AF000C8000020300000203E00002040000020B0
:105B000010B5012002F0F4FA0648012101600021DD
:105B1000054A0160031D19604FF4E05111800160D6
:105B2000002010BD405C00403C000020044A0029D9
:105B3000D16901D0014300E08143D1617047000089
:105B400000100240044A0029116901D0014300E01D
:105B5000814311617047000000100240044A00298F
:105B6000916901D0014300E08143916170470000D9
:105B700000100240044A0029D16801D0014300E02E
:105B80008143D1607047000000100240012141F2C2
:105B90001D00FFF7E3BF00000C48016841F0010160
:105BA000016041680A4A114041600168094A114098
:105BB0000160016821F480210160416821F4FE0147
:105BC00041604FF41F0181607047000000100240E7
:105BD0000000FFF8FFFFF6FE30B5204A5168204B69
:105BE00011F00C0103D0042901D0082901D0036071
:105BF00012E05168536801F470114FF0020413F47D
:105C0000803F04EB914102D053689B0301D5154BB3
:105C100000E0134B5943016051680F2303EA11114F
:105C2000114B5C5C0168E14041605468072505EA5E
:105C300014241C5D21FA04F48460546805EAD42419
:105C40001B5DD940C1605268032303EA9232064BC0
:105C50001B1F9A5CB1FBF2F1016130BD00100240E4
:105C600000127A0000093D001800002003460020C1
:105C70005909094A01290AD002290AD0516A03F0B8
:105C80001F02012393400B4200D00120704711688E
:105C9000F5E7116AF3E7000000100240024840688F
:105CA00000F00C007047000000100240034A5168E9
:105CB00021F0F001014351607047000000100240E4
:105CC0000B490A6822F480320A600A6822F48022B2
:105CD0000A60B0F5803F07D0B0F5802F03D1086887
:105CE00040F4A02008607047086840F48030F9E76D
:105CF00000100240034A516821F4E0610143516001
:105D00007047000000100240034A516821F46051BE
:105D100041EAC00050607047001002400149086627
:105D20007047000000004242034B5A68084322F4C7
:105D30007C1210435860704700100240034A5168BB
:105D400021F0030101435160704700000010024040
:105D50000149086070470000D800424218B5002091
:105D60004FF4A06400903120FFF780FF0099491C98
:105D70000091A14201D00028F5D03120FFF776FF35
:105D8000002800D0012018BD0748064901600749D6
:105D90004160074981600749C160074901610749BE
:105DA00041617047B9640008A00300202370000817
:105DB00019710008A564000805710008356F000816
:105DC00070B51C4C072800D02070207806260425CA
:105DD000194906282CD2DFE800F00306090E162028
:105DE00000F02CF824E000F029F80AE002206070AE
:105DF0000320207070BD6078401E607060780028BD
:105E0000F8D1257070BD086880B240F010000860BD
:105E1000052020700A20607070BD6078401E6070A0
:105E200060780028F8D1086880B220F0100008607F
:105E3000267070BD41010020405C004010B5064C4A
:105E4000206880B220F004002060FFF7CFFC4FF400
:105E50003F40206010BD0000405C004000290188E8
:105E600002D041F0400101E021F040010180704783
:105E70002DE9F04103271826102586B004244FF0A1
:105E80000808E8B33BA002F0FDF9012141F201004E
:105E9000FFF764FEA020ADF800008DF802708DF8C9
:105EA0000360394E69463046FFF7BCFA4020ADF832
:105EB00000008DF8034069463046FFF7B3FAADF8AD
:105EC00000508DF8035069463046FFF7ABFA0020CA
:105ED000ADF804004FF48271ADF80610ADF80C0077
:105EE000ADF808004FF40071ADF81080274CADF804
:105EF0000A00ADF80E10ADF8120001A9204600E02E
:105F000008E000F05CF801212046FFF7A7FF06B08B
:105F1000BDE8F0811EA002F0B5F9ADF800808DF863
:105F200002701F4F8DF8036069463846FFF77AFA12
:105F3000ADF800508DF8034069463846FFF772FA15
:105F4000ADF800408DF8035069463846FFF76AFA0D
:105F50002020ADF800008DF8036069463846FFF751
:105F600061FA01210F48FFF7A9FA01210846FFF75E
:105F7000A5FAACE7536C6176652053504920494E31
:105F800049540D0A000000000008014000300140A3
:105F90004D6173746572205350490D0A0000000072
:105FA000000C0140000230000246002012890A4223
:105FB00000D001207047808970478181704730B5DB
:105FC00002884C8802F441530A88CD8822438C8889
:105FD0002C4322430C8922434C8922438C8922433F
:105FE000CC8922431A430280828B22F4006282838E
:105FF000098A018230BD704730B50C48C16991F8FB
:10600000270000F0070391F830005B1CC40910F072
:10601000060200D0012291F83210234402251A44CE
:1060200005EAD0001144084430BD0000A001002062
:10603000044A53890B80002353810A880249FEF7E2
:1060400093B80000A0010020280400202DE9F05F93
:10605000D44C012520466278C069DFF84C93D34EBA
:106060004FF000084FF0050B4FF0200A00F14001FF
:106070002F460C2A7ED2DFE802F07D065994FCFB05
:10608000FAF9F8F7F6F590F83020D20601D54C224F
:1060900000E00C2280F84020E12280F8412002221A
:1060A000402001F04BF8052000F0C4F94FF4807156
:1060B000BD48FEF772F8BB4838304068FEF737FA43
:1060C00007468946FFF798FFFEF731FA0322FEF7ED
:1060D00006FA3A464B46FEF793F90022B44BFEF718
:1060E0001DF902F0E3FBFEF711FA0022B14BFEF7B7
:1060F0006EF8FEF748FA80B200EB50002062606252
:10610000306820616061E069A02180F83510352099
:1061100001F00EF884F8028084F8038084F804808B
:1061200084F80580A4F80A8002202EE100F06CFFBC
:10613000012804D1A07810B9A7703068606100F020
:1061400055FF012813D1A07888B1E07878B9E770BD
:1061500000F04CF9C4E90C0100F02EF9A06200F047
:106160005BF9E07130682061606103206070A078A5
:10617000E17800E087E088430DD030686169401A1B
:10618000616A884207D96770E069407B40F020016E
:106190000D2000F0CDFFE078A17808432179084375
:1061A0003BE06089B0F5807F01D90620EDE000F08A
:1061B00017FF01282CD16089617908430DD1E0696E
:1061C00090F83010090605D5764801210A3000F014
:1061D00023FF02E090F832006081618960790A1A39
:1061E000E16991F8351001F03F018A420ADD484427
:1061F00000F012FFE069617990F8350000F03F008F
:10620000084404E0D1B2484400F006FFA07A60716F
:1062100000F0D4FE012802D0207958B3BEE03068E7
:106220002061618960794FF0040651EA00020FD1C4
:10623000E06990F83010090605D55A4801210A3066
:1062400000F0EAFE02E090F832006081A17A607905
:10625000091AC9B2484400F0DFFEA07A60712771C4
:1062600066709BE097E092E067E043E02BE01DE082
:106270000FE009E0FFE730682169401A216A88428F
:1062800001D984F801B089E084F80580677002259F
:1062900084E084F80580A4F80A80407B40F0200167
:1062A0000D2000F045FF6770032577E084F8058036
:1062B000A4F80A80407B40F020010D2000F038FF58
:1062C000677006256AE080F8407080F841A00222DD
:1062D000402000F033FFE069982180F83510352028
:1062E00000F026FF032000F0A5F80820607084F875
:1062F000068053E000F080FE01284FD1E06990F85D
:106300003000000604D5274801210C3000F04CFF76
:10631000A089411E3F2901D8207002E0504684F830
:1063200000A0C1B2204800F03FFFA07921780844C6
:10633000A0713068A061092027E000F051FE90B9FB
:10634000A189A0790A1A21788A4206DD484400F022
:106350002BFFA0792178084404E0D1B2484400F032
:1063600023FF207BA07100F029FE012806D13068B0
:10637000A0610A206070012000F05CF83068A1691B
:10638000401AB0F57A7F09D90B20607006E084F8D6
:106390000180042502E084F8018005252846BDE837
:1063A000F09F0000A001002028040020940100209C
:1063B00000408F400000F03F10B50A4C02221B2025
:1063C000E1691B3100F0C4FDE069B0F81B0040BA80
:1063D000FEF7ADF80022044BFDF7A0FFBDE810402A
:1063E000FEF7B2B8A001002080844E4010B5084CE2
:1063F0001120E169113100F0A7FDE069407CFEF752
:1064000096F8BDE810400022024BFDF787BF000060
:10641000A00100200000E0BF10B5054C0C20E16990
:106420000C3100F091FDE069007B400910BD0000D7
:10643000A001002070B50F4D04460020E96949789D
:1064400021F0F80129728C4213D0032C00D10120D5
:10645000697A884202D0687200F0ABFEE869417840
:1064600001F0F80121434170BDE87040012000F0C7
:106470005FBE70BDA0010020014948707047000058
:10648000A001002010B5054C0A46A1810146044830
:10649000FDF76AFE0720607010BD0000A00100201B
:1064A00028040020034A12780AB100F0A5B8FFF7CB
:1064B000BFBD00009801002038B51449124808609B
:1064C0001349086000F034F800F0ABFD694606207F
:1064D00000F03AFD9DF800100EA001F0D3FE4FF43D
:1064E0007A7405E00DA001F0CDFE204601F018F809
:1064F0009DF800106C29F5D10C490120087000F0BE
:106500009FFD00F085F838BDB8030020BC010020D5
:106510000802002025780D0A00000000486172641E
:106520002053504920457272210D0A009801002025
:106530002DE9F84301217D20FFF710FB03241026ED
:10654000194D8DF8024048208DF803002878174F28
:10655000DFF85C80B0B10220ADF80000694640462B
:10656000FEF760FF2878A0B14FF48070ADF800000E
:106570008DF802408DF8036069464046FEF752FFF1
:10658000BDE8F8834FF40060ADF800006946384676
:10659000E6E74FF48060ADF800008DF802408DF81A
:1065A000036069463846E9E745010020000C0140D8
:1065B0000008014010B50D4C032206202168891DFA
:1065C00000F0C6FC21680A4C8879CA790004097A6F
:1065D00040EA02200843FDF7AAFF0022054BFDF721
:1065E0009DFEFDF7D0FF206010BD000008020020D6
:1065F0001802002080844E40034BDA880A80002174
:10660000D9800249FDF7B0BDF8010020280500201F
:1066100070B5254C0020207000F0A4FA234D6F22A5
:10662000691C012000F094FC216920206F2208736E
:10663000691C012000F082FD2034206800F07EFB00
:10664000A07900F017FCE07900F094FA207A00F0CD
:1066500049FB607900F0F6FB607A00F0A5FA40F2A1
:10666000FF3000F031FC207E00F056FB012000F0EE
:10667000B3FA0F492068884207D9802000F0FCFA5D
:10668000012000F00FFB142006E0002000F0F4FAD7
:10669000002000F007FB0E20207100F079FBBDE820
:1066A0007040012000F0C6BAF8010020B8030020B5
:1066B0000057A6162DE9F84FFE4C0125DFF8F883A8
:1066C0002078DFF8F8A30027A9464FF0020B04F169
:1066D00020060B287ED2DFE800F07D065099F6F503
:1066E000F4F37DF2F100012000F0A4FA20699D216D
:1066F0004174112000F01CFDF07A01282AD0216994
:10670000FF2081F82400206990F82410242000F054
:106710000FFD21690222402081F83F7081F840700E
:106720003F3100F00BFDB07A012824D02069C17BF5
:1067300041730D2000F0FCFC052000F07BFA4FF4C3
:106740008071DF48FDF729FD70696061DAF80000AB
:10675000E0606BE02169307B81F824001C311C2053
:1067600000F0F2FB2069007F00F03F0158F82100A3
:1067700000F0E4FAC7E70620DFE700F01FFC01287D
:1067800018D1DAF80000E060F07A01280CD1216914
:106790001C201C3100F0D8FB2069007F00F03F0175
:1067A00058F8210000F0CAFA4021122000F0C0FC85
:1067B0000320207000F01AFC01281BD1DAF8000039
:1067C000E060F07A01280ED121691C201C3100F014
:1067D000BBFB00E02CE02069007F00F03F0158F88F
:1067E000210000F0ABFA0221122000F0A1FC00F021
:1067F000ABF96070B07A01281AD1DAF80000E168CC
:10680000401A6169884213D904201BE121691220D2
:10681000123100F099FB2069807C80060CD5202184
:10682000122000F085FCB07A012802D084F800B074
:106830007EE184F800907BE16946192000F084FB3A
:106840009DF80000010605D5C043401CC0F385003B
:10685000404200E0800820719A493068DFF8588291
:106860008842DFF864A294F90400A8F1F0082BD262
:10687000002815DAFDF74AFE0F467179054608EB48
:10688000C1000022D0E9001C084653466146FDF7CE
:1068900045FD00228D4BFDF79AFC00228C4B2AE02F
:1068A00021691A201A3100F04FFB2069807EFDF724
:1068B0003EFE814A05467079A03A2EE02AE111E1B8
:1068C0000AE1D4E080E07BE0002819DAFDF71EFE43
:1068D0000F467179054608EBC1000022D0E9001C83
:1068E000084653466146FDF719FD0022774BFDF738
:1068F0006EFC0022774BFDF76AFC2A463B4611E00E
:1069000021691A201A3100F01FFB2069807EFDF7F3
:106910000EFE0546684A7079503A02EBC000D0E995
:1069200000232846FDF753FCC4E90601B07A01288C
:1069300020D021691020103100F006FB707A012868
:106940002ED021691320133100F0FEFA2069C17C9A
:10695000E180017C41730D2000F0EAFB2069C17CDD
:10696000574800F059FBB07A012826D084F800B0CF
:106970000225DDE02069C17B41730D2000F0D8FBCA
:10698000707A012808D021691320133100F0DCFA55
:106990002069C17CE180E3E7206990F82210F9E7E3
:1069A000206990F82210E180017C41730D2000F0F5
:1069B000BFFB206990F82210D2E784F80090D7E757
:1069C00084F800900325B3E0012000F033F9F07A59
:1069D000012839D02069F721417480F8247020699A
:1069E00090F82410242000F0A3FB2069417C1120A2
:1069F00000F09EFB2069217A80F82210222000F00E
:106A000097FB2069394687730E2000F091FB2069BF
:106A1000817B41730D2000F08BFB206990F82210E0
:106A2000274800F0C1FB21694120022281F83F0084
:106A3000402081F840003F3100F080FB032000F04F
:106A4000F9F80620207073E02169F5204874307B46
:106A500081F824001C311C2000F076FA2069007FA8
:106A600000F03F0158F8210000F068F9B7E700F0A6
:106A7000A5FA012805D10821122000F059FB0720B2
:106A8000207000F0B3FA012852D1F07A01280CD11D
:106A900021691C201C3100F057FA2069007F00F0AA
:106AA0003F0158F8210000F049F90221122000F0BE
:106AB0003FFB3DE0F8010020708C000894010020AD
:106AC00028050020008F42330000244000C065C02C
:106AD0000000104000001840012000F0ABF82770C3
:106AE000042525E0012000F0A5F82069FA21417471
:106AF000112000F01DFB21690222402081F83F7027
:106B000081F840703F3100F019FB072000F092F847
:106B10000A2097E700F070FA012809D10421122019
:106B200000F006FB00F070FA012804D0277007255A
:106B30002846BDE8F88F0121122000F0F9FA84F808
:106B400000900825F4E7000010B5054C0C202169E1
:106B50000C3100F0F9F92069007B400910BD0000FC
:106B6000F8010020024801694131422000F0ECB9EF
:106B7000F801002070B50A4D04461D2029681D311A
:106B800000F0E2F92A68507F00F0F10040EA44008A
:106B9000C1B251771D2000F0CBFA0248C47170BD1C
:106BA000080200201802002070B5094D04461D207F
:106BB00029681D3100F0C8F92A68507F00F0FE01F5
:106BC000214351771D2000F0B3FA0248447270BD92
:106BD000080200201802002070B50A4C0546262045
:106BE0002168263100F0B0F9226812F8260F00F073
:106BF000F70040EAC5011170BDE87040262000F0A2
:106C000097BA00000802002070B5094D04463120F3
:106C10002968303100F098F92A6812F8300F00F036
:106C2000F80121431170BDE87040312000F080BAB6
:106C30000802002070B50F4D0446002029694978EC
:106C400021F0F801A9708C4213D0032C00D101204F
:106C5000E978884202D0E87000F0ABFA2869417800
:106C600001F0F80121434170BDE87040012000F0BF
:106C70005FBA70BDF801002070B5094D04460920C7
:106C80002968093100F060F92A68507A00F07F0124
:106C900021435172BDE87040092000F049BA00005C
:106CA0000802002070B50E4C05464D2021684C317D
:106CB00000F04AF921680920093100F045F92168FE
:106CC000487A00060AD515B1872081F84C0091F862
:106CD0004C10BDE870404D2000F02ABA8420F4E743
:106CE0000802002070B50A4D04461E2029681E3196
:106CF00000F02AF92A68907F00F0FB0040EA840146
:106D000091771E2000F014FA0248047270BD000052
:106D10000802002018020020064910B50968044640
:106D200081F822000146222000F002FA024804768F
:106D300010BD0000080200201802002010B5044613
:106D400001460EA001F09EFA0E4804602046FDF7B1
:106D5000EEFB00220C4BFDF753FBFDF714FC0B4937
:106D6000020C09688A71020ACA7108720322891D1D
:106D7000BDE81040062000F0E1B9000025640D0ACE
:106D8000000000001802002080844E40080200200D
:106D900070B5244D044609202968093100F0D4F863
:106DA00029684D204C3100F0CFF82868417A0A0656
:106DB00028D590F84C3087229A4303D0022C0EDA63
:106DC00002240FE0052C01DA052402E0142C00DD7A
:106DD000142401F0F00141F07001621F07E0112C52
:106DE00000DD112401F0F00141F07001A21E02F05B
:106DF0000F0211434172C9B2092000F099F90A4803
:106E0000047170BD4FF0FF32944201DA144602E083
:106E10000E2C00DD0E2401F0F00141F07001621C27
:106E2000E5E7000008020020180200200149087070
:106E300070470000F80100200149486170470000D8
:106E40001802002070B5094D04461D2029681D3127
:106E500000F07AF82A68507F64F31F10C1B25177AE
:106E60001D2000F065F90248447170BD0802002041
:106E70001802002070B504460C2801D90C2408E043
:106E8000062C02D24FF0060400E002D14FF00500BC
:106E900001E04FF00300FFF7B7FE094D1E202968FF
:106EA0001E3100F051F82868817F64F31F11C9B2C8
:106EB00081771E2000F03CF90248847170BD00000B
:106EC000080200201802002070B50C4D0446022272
:106ED00029681E201E3100F03BF82968032202EACF
:106EE0001422887F00F0FC0010438877CC77BDE83F
:106EF000704002221E311E2000F020B9080200203E
:106F000010B5074A064CD27A203C02B1FF212181FC
:106F10008AB201460348FDF727F90520207010BD0D
:106F20001802002028050020014908617047000070
:106F3000180200200348007808B1FFF7BBBBFFF739
:106F400085B8000098010020012200F001B800007F
:106F50002DE9F047164F044615463878DFF854807F
:106F6000DFF854900E464FF0000248B11021484619
:106F7000FEF7DBFA04F07F0000F0E2FA002408E0FC
:106F800004214046F4E7002000F0DAFA3055641C92
:106F9000E4B2AC42F7D338784FF0010228B11021A7
:106FA0004846BDE8F047FEF7C0BA04214046F8E77E
:106FB00045010020000C0140000801400548007810
:106FC00018B102210448FEF7A5BA4FF40061034846
:106FD000F9E700004501002000080140000C0140D5
:106FE00020210148FEF796BA001401408021014893
:106FF000FEF790BA001401404FF400610148FEF71B
:1070000089BA0000001401404FF400410148FEF726
:1070100081BA0000001801400A4601460020FFF72F
:1070200097BF10B5012000F04DF8012001F006FBDC
:10703000002000F047F8BDE81040062001F0FEBA3D
:1070400070B51D494A78824234D0487008701B4D93
:107050001B4C00284FF0000018D0FFF7EBFD28680C
:10706000417841F080014170012000F061F8012079
:10707000FFF7E0FD29680020022281F83F0081F837
:1070800040003F31402000F059F80CE0FFF7D2FDFE
:107090002868417801F07F014170012000F048F834
:1070A0000120FFF7C7FD611CBDE870406F22012081
:1070B000FFF74EBF70BD00009801002008020020BD
:1070C000B803002030B40E4A4FF480610A4B8D1093
:1070D0000A4C1278012805D062B12946204630BCFE
:1070E000FEF721BA22B12946204630BCFEF719BA74
:1070F0001846FAE71846F2E7000C01400008014084
:1071000045010020034A12780AB1FFF7F9BEFFF7E4
:10711000B9B90000980100200448007800284FF019
:10712000010001D0FFF782BEFFF7A6B99801002049
:1071300013B5012201A900F001F81CBD2DE9F047AB
:10714000164F044615463878DFF85480DFF854901F
:107150000E464FF0000248B110214846FEF7E5F90F
:1071600044F0800000F0ECF9002407E004214046E0
:10717000F4E7305D00F0E4F9641CE4B2AC42F8D30B
:1071800038784FF0010228B110214846BDE8F04799
:10719000FEF7CBB904214046F8E700004501002086
:1071A000000C0140000801400A4601460020FFF79C
:1071B000C5BF7047024920F0070008607047000013
:1071C000505C0040F0B50D490D4E48F68F770D78B4
:1071D000002148F2800C09E0CAB206EB82031C6869
:1071E0003C40144344EA0C041C60491CA942F3D3FC
:1071F000034940F080004C310860F0BDA000002041
:10720000005C0040054A21F00101126892B202EBD5
:10721000C000034A02EB400081607047505C0040B0
:10722000006000400D4A12683E2992B202EBC00095
:107230000B4A02EB400209D94809C90601D1401E98
:1072400080B24FF4004141EA802004E04808C907B9
:1072500000D0401C8002106070470000505C00406D
:107260000C6000400A4A02EB800210684BF68F73F4
:1072700000EA0300CB0401D580F48050890401D5D5
:1072800080F4005048F2800108431060704700000D
:10729000005C0040064901EB800001684BF68F72EC
:1072A000114081F4405148F280021143016070475F
:1072B000005C0040054A21F00101126892B202EB25
:1072C000C000034A42F8101070470000505C0040B4
:1072D00000600040044A126892B202EBC000034A08
:1072E00002EB400041607047505C0040006000408D
:1072F0000A4A02EB8002106848F6BF7300EA0300F6
:10730000CB0601D580F01000890601D580F0200061
:1073100048F280010843106070470000005C0040A4
:10732000064901EB8000016848F6BF72114081F008
:10733000300148F28002114301607047005C004058
:10734000044A02EB8000026848F68F131A400A4391
:1073500002607047005C00400CB500222648009295
:107360000192016841F4803101604FF4A06301682B
:1073700001F4003101910099491C0091019911B962
:1073800000999942F3D10168890333D50121019114
:107390001A490A6842F010020A600A6822F00302E1
:1073A0000A600A6842F002020A604168416041686E
:1073B0004160416841F480614160416821F47C1181
:1073C0004160416841F4E8114160016841F0807119
:1073D000016001688901FCD5416821F00301416029
:1073E000416841F0020141604168C1F38101022915
:1073F000FAD10CBD01920CBD0010024000200240E9
:1074000038B5FEF7C9FB4FF480342046FEF758FC30
:10741000FEF7A4FC21490128087000D0FEE71020E7
:10742000FDF7F6FE0220FDF741FF0020FEF73EFCCF
:107430000020FEF769FC4FF48060FEF75BFC4FF420
:10744000E0112046FEF770FC0120FEF767FC3920B2
:10745000FEF70CFC0028FAD00220FEF76FFCFEF7C6
:107460001DFC0828FBD101214006FEF75FFB01212E
:107470004020FEF773FB4FF40060ADF800000220DF
:107480008DF8020010208DF8030069460448FDF7CE
:10749000C9FF01211020FEF761FB38BD420000202A
:1074A0000018014010B50020FEF752FC0121BDE894
:1074B0001040C805FEF73ABB70B516480068174D76
:1074C00081B2154800EB4101098989B200EB410402
:1074D0002868017A09290FD02178017061784170FC
:1074E000A088FDF7F8F9296848802089FDF7F3F9AD
:1074F00029688880A089C880286801210172C08815
:1075000028B1FDF78BFCBDE87040FEF7D7BAFEF757
:10751000B7F9F8E7505C0040006000403000002000
:1075200041F60E7305E019460A00A1F1010189B286
:10753000FAD10100A0F1010080B2F4D1704700003F
:1075400010B5084C01462046FEF737FD01212046C4
:10755000FEF72AFD0028F9D02046FEF72CFDC0B228
:1075600010BD000000300140FEF782BC2DE9F04163
:1075700034480068017811F07F0102D0022905D05B
:107580005DE0417A01F0DF01417247E04188002966
:1075900055D10179F1BB41792C4D21F080040A06C7
:1075A000294B55F8242003D5C2F30112120102E041
:1075B000C2F3013212031E782346A6423FD94AB3D2
:1075C000807A38B308060DD555F82400C0F30110B1
:1075D00001281DD11846FDF73BFA20463021FFF760
:1075E00087FE15E005EB84063068C0F30130012802
:1075F0000ED14BF68F7748F2800894B11846FDF70C
:1076000015FA3068384080F4405040EA0800306095
:107610000F4800E013E00068406980470020BDE8A3
:10762000F0810C4890F82C100020FFF7FBFD286833
:10763000384080F4405040EA08002860E8E7022023
:10764000EDE7000030000020A0000020005C0040BA
:1076500038000020C800002010B5074C30B10748A2
:1076600000680068804720680A3010BD216801204A
:107670000882002010BD00003000002038000020EB
:10768000054A13685A8A10B1086810447047888800
:10769000801A1882002070473000002010B5074C77
:1076A00030B1074800688068804720680C3010BD02
:1076B000216801200882002010BD00003000002059
:1076C000380000201F4910B5096860B11E4800222B
:1076D00002800A7853060AD002F07F02012A16D0EF
:1076E000022A16D001E002200882002010BD497A4B
:1076F0008A06027802D542F0020201E002F0FD02A1
:1077000049060270D1B210D401F0FE010FE00E481C
:1077100010BD497901F00F020B060C4951F82210F7
:1077200007D5C1F3011106E0017841F001010170B4
:1077300003E0C1F301310129F6D005480068006972
:107740008047E4E7300000202A000020005C004071
:10775000380000200A4810B500680A4AC1785278FB
:10776000914203D882780AB982880AB1022010BDFA
:1077700081720548006840688047002010BD000005
:1077800030000020A000002038000020064810B57E
:107790000068417A41F02001417204480068C069E4
:1077A0008047002010BD000030000020380000207D
:1077B00070B51B4802681B48517921F0800500EB29
:1077C00085000B06036821F0800403D5C3F3011381
:1077D0001B0102E0C3F301331B03134D2D78A542B7
:1077E0000FD954886CB963B1927A52B10906016815
:1077F00048F2800207D548F6BF73194081F01001A6
:1078000006E0022070BD4BF68F73194081F4805161
:10781000114301600548006880698047002070BD01
:1078200030000020005C0040A00000203800002054
:1078300010B50E4C0E4A20681268C17892694079E2
:10784000904721688A7A22B118B9087908B98878EE
:1078500008B1022010BD07480068C0688047206852
:107860004179C172C1780173002010BD3000002041
:107870003400002038000020002108460A4A03E0B6
:10788000135C401C1944C0B213789B1E8342F7DC82
:107890001278C9B20448801E105C814201D10120D7
:1078A0007047002070470000FC0200200648016875
:1078B00089B241F008010160016889B241F0040118
:1078C0000160FDF763BC0000405C004002480168B5
:1078D000491C016070470000940100200F4810B55A
:1078E000016841F00101016041680D4A11404160A9
:1078F00001680C4A11400160016821F48021016097
:10790000416821F4FE0141604FF41F018160FFF7DF
:1079100023FD05494FF00060086010BD00100240D3
:107920000000FFF8FFFFF6FE08ED00E010B5074C81
:107930000121204600F0E0F8002805D02046BDE8EF
:107940001040012100F007B810BD0000002C0140DC
:10795000C94301827047C9430182704700290188E9
:1079600002D041F0010101E021F0010101807047E6
:10797000002930F8441F02D041F4004101E0C1F376
:107980000E010180704700004B4910B5884202D1BA
:107990000121C41486E0B0F1804F09D047498842E4
:1079A0000DD101210220FEF7CDF80021022064E074
:1079B00001210846FEF7C6F8002101205DE040499C
:1079C000884206D101210420FEF7BCF800210420E2
:1079D00053E03C49884206D101210820FEF7B2F865
:1079E0000021082049E03849884206D101211020B1
:1079F000FEF7A8F8002110203FE03449884206D164
:107A000001212020FEF79EF80021202035E030499A
:107A1000884202D10121441444E02E49884202D117
:107A20000121CC043EE02C49884202D101210C0501
:107A300038E02A49884202D101214C0532E0284928
:107A4000884206D101214020FEF77CF80021402029
:107A500013E02449884206D101218020FEF772F804
:107A60000021802009E0204988420AD184150121A3
:107A70002046FEF767F800212046BDE81040FEF7DB
:107A800061B81A49884202D101210C040AE0184960
:107A9000884202D101214C0404E0164988420AD1EF
:107AA00001218C042046FEF765F82046BDE8104011
:107AB0000021FEF75FB810BD002C0140000400401B
:107AC00000080040000C004000100040001400407E
:107AD00000340140004C014000500140005401407E
:107AE00000180040001C0040002000400040014001
:107AF000004401400048014002460020138A928958
:107B00000B4202EA010202D0002A00D00120704795
:107B1000002A828901D00A4300E08A4382817047AB
:107B200030B5028C22F001020284028C8388048B1F
:107B300022F0020224F073050C882C430D891543B2
:107B40004A882A43114DA8420BD0114DA84208D0B3
:107B5000104DA84205D0104DA84202D00F4DA842AA
:107B60000DD122F008054A8923F440732A4322F0FC
:107B700004058A882A438D891D43CB892B43838042
:107B80000483C9888186028430BD0000002C014036
:107B900000340140004001400044014000480140E1
:107BA000028B22F008020A430283704770B5028CF0
:107BB00022F010020284028C8388048B0D8824F446
:107BC000E6464FF6FF7404EA052535430E8922F098
:107BD000200204EA061616434A8804EA02123243D7
:107BE000104EB04202D0104EB04215D122F08006A5
:107BF0004A8923F4406304EA0212324322F0400629
:107C00008A8804EA021232438E8904EA86061E43F9
:107C1000CB8904EA8303334383800583C9880187C2
:107C2000028470BD002C014000340140028B4FF6ED
:107C3000FF7322F4006203EA0121114301837047BC
:107C400070B5028C22F480720284028C8388848B4B
:107C50000D8824F0730425430E894FF6FF7422F437
:107C6000007204EA062616434A8804EA02223243D6
:107C7000104EB04202D0104EB04215D122F4006630
:107C80004A8923F4405304EA0222324322F48066F4
:107C90008A8804EA022232438E8904EA06161E43C9
:107CA000CB8904EA0313334383808583C9888187A2
:107CB000028470BD002C014000340140828B22F010
:107CC00008020A438283704770B5028C22F4805206
:107CD0000284058C8288838B0C8823F4E6464FF659
:107CE000FF7303EA0424344325F400560D8903EAA4
:107CF000053535434E8803EA06362E43094DA84222
:107D000002D0094DA84205D122F480458A8903EAB0
:107D100082122A4382808483C988A0F84010068496
:107D200070BD0000002C014000340140828B4FF6F2
:107D3000FF7322F4006203EA01211143818370473B
:107D40000021018041808180C18001814181818148
:107D5000C181704730B502881B4C1C4DA0420DD02C
:107D6000A8420BD0B0F1804F08D0194B984205D0F3
:107D7000184B984202D0184B984203D122F070035E
:107D80004A881A43154B984206D0154B984203D0A7
:107D900022F44073CA881A4302808A8882850A883E
:107DA0000285A0420AD0A84208D00E4A904205D0CF
:107DB0000D4A904202D00D4A904201D1097A0186C3
:107DC0000121818230BD0000002C014000340140BF
:107DD0000004004000080040000C0040001000407B
:107DE00000140040004001400044014000480140B0
:107DF0007FB50C4605460121C802FDF7AFFE6D1E9A
:107E0000641EADF80450ADF800404FF480700024BB
:107E1000124DADF80600ADF802408DF808406946F5
:107E20002846FFF797FF01212846FFF791FD012221
:107E300041212846FFF76CFE19208DF80C008DF8C3
:107E40000D408DF80E4001208DF80F0003A8FDF7BE
:107E5000D1FC01212846FFF781FD7FBD002C0140A8
:107E6000074800B54178490609D5417821F040011D
:107E70004170FFF701FD002801D00248407800BDA5
:107E800068010020FC02002070B50B4D40F2255423
:107E90002146284600F083F800280BD0284600F041
:107EA0001EF9C0B2FDF788F821462846BDE87040AB
:107EB00000F004B870BD0000004400400A0A01212F
:107EC0009140C943018070470029818902D041F463
:107ED000005101E021F400518181704710B586B056
:107EE00000F0EEF800F036F84FF4E130009000209A
:107EF000ADF80600ADF80400ADF80800ADF80C00D0
:107F00000C20124CADF80A006946204600F07EF8BD
:107F1000012240F22551204600F060F80121204660
:107F2000FFF7D2FF0A4C6946204600F06FF80121A6
:107F30002046FFF7C9FF26208DF8100001208DF89C
:107F4000130004A8FDF756FC06B010BD0044004025
:107F50000038014038B518208DF803004FF4007048
:107F6000ADF800000320094C8DF802006946204658
:107F7000FDF758FA04218DF803100902ADF800103E
:107F800069462046FDF74EFA38BD00000008014062
:107F90000246002012880A4200D00120704770B5C6
:107FA00001F01F0501260024C1F3421306FA05F271
:107FB000012B0FD0022B0FD0838A4FEA11210088AA
:107FC000134206FA01F600EA060001D000B10124CE
:107FD000204670BD8389F0E7038AEEE710B5C1F350
:107FE000421301F01F040121A140012B07D0022BF5
:107FF00007D01430002A026805D00A4304E00C3090
:10800000F8E71030F6E78A43026010BD30B5044649
:10801000008A85B00D464CF6FF710840E98801439F
:108020002182A0894EF6F3110840A9882A891143BC
:108030006A8902431143A181A08A4FF6FF4108409B
:10804000A9890143A1826846FDF7C6FD1B48844209
:1080500001D1039800E00298A1890904002900EBEE
:10806000C00101EB0010296802DA4FEA410101E08A
:108070004FEA8101B0FBF1F06422B0FBF2F14FEA6C
:1080800001114FEA11136FF018056B4300EB8300E9
:10809000A3891D044FF0320306D503EBC000B0FBEB
:1080A000F2F000F0070005E003EB0010B0FBF2F087
:1080B00000F00F000843208105B030BD00380140BA
:1080C00010B501210420FDF749FD01214804FDF709
:1080D0002DFD0121BDE810408803FDF73FBD8088DC
:1080E000C0F308007047C1F30801818070470000A9
:1080F000044A00284FF40061104601D0FDF711BA80
:10810000FDF711BA0018014006490548022208602F
:108110000272064A0448C1E90102006800470000F3
:108120003802002030000020C80000201801002084
:1081300008B54FF44070FDF78FFB14208DF8000058
:1081400001208DF8010000218DF802108DF8030048
:108150006846FDF74FFB08BD70B52A4C20682A4DD4
:1081600068806888294E31880840000401D5FCF7F2
:10817000B7FB688831880840400505D54FF6FF30C9
:10818000206023484068804769883088014089041E
:1081900002D54DF6FF71216069880140C80405D5FC
:1081A0004EF6FF7020600020FDF70AFE68883188D7
:1081B000084000050BD51748007810B1FFF776FB93
:1081C00002E00220FDF7FCFD4FF2FF70206069889D
:1081D00030880140890506D54FF6FF512160297886
:1081E00001F101012970698801EA0001C80507D57C
:1081F0004FF6FF602060BDE870400720FDF7E0BD4E
:1082000070BD0000445C0040640000203C00002081
:10821000C800002040010020FFF79EBF10B50D4AA6
:10822000002110F8013B5354491CC9B24029F8D130
:1082300040224FF48C71074800F010F802214020D2
:10824000FFF748F80220FFF76BF8BDE81040FDF794
:10825000C5BA000094020020FEE70000084B10B5EC
:10826000521C520803EB410108D003784478801C6B
:1082700043EA042321F8043B521EF6D110BD00004E
:10828000006000400FB4054B10B503A9044A0298E2
:1082900000F018F810BC5DF814FB000041860008DF
:1082A0003402002002E008C8121F08C1002AFAD1D7
:1082B00070477047002001E001C1121F002AFBD166
:1082C000704700002DE9FF4F8DB09B460F460446D6
:1082D000002638E1252801D00F9959E00025641CBB
:1082E0009D49A84601222378203B02FA03F0084268
:1082F00002D00543641CF6E720782E2817D114F825
:10830000010F45F004052A280ED06FF02F022078C7
:10831000A0F1300109290AD808EB880102EB4101DC
:1083200000EB0108641CF2E757F8048B641C20780A
:108330006C280DD004DC4C2812D06A2811D104E03E
:1083400074280DD07A280CD10AE045F4001507E016
:10835000617845F48015814202D1641C05F58015D1
:10836000641C2278692A46D008DC002A70D0582A7A
:1083700069D0632A11D0642A08D13CE0702A69D000
:10838000732A14D0752A5CD0782A5CD00F991046D5
:108390005A46904706F10106D4E017F8040B8DF811
:1083A000000000208DF80100E946012003E057F8A5
:1083B000049B4FF0FF3069074FF0000501D40AE03D
:1083C0006D1C45450DDA8542FADB19F805100029C8
:1083D000F6D106E06D1C8542FCDB19F8051000297A
:1083E000F8D12E4404E019F8010B5A460F99904732
:1083F0006D1EF8D2A6E00A200021CDE90801C5F3E0
:10840000025002280BD001CFC11700290EDA4FF01D
:10841000000CD0EB0C006CEB01012D2309E007F1FF
:10842000070727F00707F7E80201EEE72B0504D559
:108430002B238DF82830012330E0EB072ED02023AA
:10844000F7E70A2000E010200021CDE9080109E04B
:108450007DE0FFE71020002145F00405CDE908018B
:108460004FF00808C5F3025002281BD001CF0021AD
:108470004FF0000A2B0712D5702A19D0DDE908C386
:108480008CF0100C5CEA030C09D150EA010306D011
:1084900030238DF828308DF8292002239A46582A57
:1084A00010D00AE0FF1D27F00707F7E80201DFE719
:1084B00040228DF828204FF0010A28A20DF1200952
:1084C0000B9209E02AA2F9E7DDE90823FCF788F816
:1084D0000B9B9B5C09F8013D50EA0102F4D1ADEB26
:1084E000090000F120000890680701D44FF001084E
:1084F0000899884502DDA8EB010000E000208046D5
:10850000002506E00AA85A46405D0F999047761C60
:108510006D1C5545F6DB04E030205A460F99904714
:10852000761CB8F10001A8F10108F5DC05E019F8A6
:10853000010B5A460F999047761C0899481E0890DF
:108540000029F4DC641C207800287FF4C3AE11B04D
:108550003046BDE8F08F0000092801003031323389
:10856000343536373839616263646566000000006F
:108570003031323334353637383941424344454659
:108580000000000070B5FDF701FBFEF739FFFFF7B3
:10859000A5FC174D2868174C0078207016A0FFF72F
:1085A00071FEFCF7ABFE207801281BD04FF461610F
:1085B0004FF4FA60FFF71CFCFFF7BAFDFEF772FFFD
:1085C000FFF7A2FD4FF400511248FCF7ACFF12A0D8
:1085D000FFF758FE286801782170BDE8704011A0AF
:1085E000FFF750BE13A0FFF74DFEFDF737F8E3E7A6
:1085F00060010020450100205B55534220436F6E0F
:1086000074726F6C20426F6172642056302E315D3F
:108610000D0A0000001001405B555342204F6E5D73
:108620000D0A00005B54796520416464725D257811
:108630000D0A00004D6F746F720D0A00FEF770BFD7
:1086400070B5074D0446C1B22846FFF74CFD8021A6
:108650002846FFF79DFC0028F9D0204670BD000099
:108660000038014092B04FF480414803FDF7FEF816
:108670004A480078DFF828914C4689F801004748BD
:10868000801C0088A9F80400FFF77CFF4FF0000869
:1086900084F801804046FCF7FDF8FDF775FBE060CB
:1086A0000068804701A800F0CFF800F04BF9E068BF
:1086B0000421026909F110009047FDF77BFF014694
:1086C00038A0FFF7DFFD3E4C3E4E3F4F3F4DFDF7DC
:1086D00041F928684028FAD1A07800906378227880
:1086E00029683BA0FFF7CEFD20780838092852D230
:1086F000DFE800F01C5151515148050E3D003AA0F1
:10870000FFF7C0FD601C00F06FF900F01BF942E0BC
:108710003AA0FFF7B7FD0F20307001A800F094F8E1
:108720001A2201A9701CFBF71FFD31E038A0FFF7EA
:10873000A9FDFCF7C5FD3420FCF72AFD4C46D9F80D
:108740000800FCF72BFD042804D14AF68661A068D6
:10875000FCF784FDC820FFF771FF32490868324AF0
:1087600000F4E06010430860BFF3408FFEE7A2789A
:1087700061782EA0FFF786FD1022611C381DFBF7E3
:10878000F3FC08E00D203070B879B071F879F07121
:108790000C48FFF743FDC5F8008098E716F800087D
:1087A0004401002073783132373820667265717564
:1087B000656E6379203D202564200D0A00000000CD
:1087C0005402002060030020E80200206000002026
:1087D000455031204F555420256420257820257898
:1087E0002025780D0A0000005B434D445F5345543B
:1087F0005F4C4F52415D0D0A000000005B434D4449
:108800005F4745545F4C4F52415D0D0A0000000028
:108810005B434D445F52455345545F424F41524480
:108820005D0D0A000CED00E00400FA055B434D44C9
:108830005F5345545F4D6F746F725D20257820251E
:1088400078203131310D0A002DE9F041124F0646F2
:10885000002505EB450007EB800421790229A1687A
:1088600008D00B6857F8202029460CA0FFF70AFD16
:10887000002007E00B88F5E7A168095C401C06F8BA
:10888000011BC0B221798142F6D86D1CEDB20B2DCF
:10889000DFD3BDE8F0810000FC8A00085B25645D41
:1088A0002025733A25640D0A000000002DE9F04DE3
:1088B00007460E46FBF756FF04460D463A4633463A
:1088C000FBF729FD0746DFF870A0DFF870B01C4BFE
:1088D000884616F0004F4FF0000238460AD0FBF7EA
:1088E0006BFE0AD900225B4638464146FBF77EFF05
:1088F0001BD212E0FBF760FE08D20022534620464E
:108900002946FBF705FD04460D460EE000225B46B6
:1089100038464146FBF76AFF07D8002253462046F7
:108920002946FBF754FC04460D463146204665F3C4
:108930001E01BDE8F08D00000000F03F0000E03FA8
:108940000000E0BF10B51A480068FEF7F7F91848B4
:10895000001D90F90000FEF71BFA1548801D0078F5
:10896000FEF770FA124808300078FEF783FA1048D4
:108970000A300078FEF7FEF80D480C300088FEF74C
:10898000D3FA0B480E300088FEF756FA094C61788E
:1089900051B109A0FFF776FCE06880688047BDE828
:1089A000104008A0FFF76EBC0CA0FFF76BFCF6E7C9
:1089B00004F8000844010020536C617665202564AA
:1089C0000D0A00005B736574206C6F72612070612A
:1089D000726120646F6E655D0D0A00004D617374F5
:1089E00065722025640D0A002DE9F0410025074637
:1089F0002C46FCF765FC3420FCF7CAFB1948FCF751
:108A0000CDFBDFF86480064605EB450108EB8100ED
:108A10000179022902D0042909D019E039198068A6
:108A2000098849BAFCF700FC0646A41C0BE03A1979
:108A300080681168D27809BA21F0FF011143FCF770
:108A40000DFC0646241DE4B202E008A0FFF71AFC64
:108A5000042EFAD16D1CEDB20B2DD5D3BDE8F0413B
:108A6000FCF7CEBB00F80008FC8A00085761697467
:108A70000D0A00001201000200000040830450575C
:108A800000020102030109022900010100E032098C
:108A9000040000020300000009211001000122214E
:108AA000000705820340000107050103400001059E
:108AB0008C0901A101090315002600FF75089540E6
:108AC0008102090415002600FF750895409102C037
:108AD0000403090414034D007900550053004200BB
:108AE0005F00480049004400120342007900200062
:108AF00044005A003500360031000000768D000831
:108B00000400000000F80008AB8D0008040000001D
:108B100004F800085E8D00080200000008F8000854
:108B2000A28D0008020000000AF80008668D000807
:108B3000020000000CF80008528D0008020000003E
:108B40000EF80008928D00080200000010F80008DE
:108B5000828D00080200000012F80008448D000811
:108B60000200000014F800083F8D00080200000019
:108B700016F800083C8D00080200000018F80008F4
:108B8000417574196F240F402EBAACDA27121040C9
:108B90004032C4C178C61040661330AC68461140FC
:108BA000E029CEF6B9FA11400101CEFEA97A1240B1
:108BB0008021D82BFB2E13402019E2603C63144027
:108BC000C010EC957D9715406008F6CABECB1640E4
:108BD00000000000006063C000000000006063C08F
:108BE00000000000006063C000000000006063C07F
:108BF00000000000006063C000000000006063C06F
:108C000000000000006063C000000000006063C05E
:108C100000000000006063C000000000006063C04E
:108C20000000000000C062C00000000000C062C080
:108C30000000000000C062C00000000000C062C070
:108C40000000000000C062C00000000000C062C060
:108C50000000000000C062C00000000000C062C050
:108C60000000000000C062C00000000000C062C040
:108C700020AEA036E07D0B37A017083660F0AF3687
:108C800060F0AF36403D2E36C0AFD235000D99367C
:108C900020A5633680A331374061223760DE353648
:108CA00040466B36A032BF36A032BF36A00ECB3561
:108CB000E0625436A0443937A00ECB35809AF436A2
:108CC000001F1337E050DA3540466B36809AF43691
:108CD00080A33137807F3D360016D636A03BFC3668
:108CE000C0C14C36809AF43660DE353680A3313709
:108CF000809AF4368091B73660022A3700FB1E3620
:108D000060F0AF36A0443937209C2636000D9936E6
:108D100060D5F835000D9936C0AFD2354034F13505
:108D2000C0CA893640466B36C0B80F36807F3D36A4
:108D3000A044393760022A37C0C14C364944004D3F
:108D40004F44450050494E504F4E47506572696F31
:108D500064004572726F72436F64696E67005458A5
:108D6000506F77657200537072656164696E674613
:108D70006163746F720054797065416464726573E5
:108D8000730052785061636B657454696D656F75DB
:108D9000740054785061636B657454696D656F75C8
:108DA00074005369676E616C427700524646726583
:108DB0007175656E63790000D88D00080000002091
:108DC0003802000038480008B08E00083802002041
:108DD000F00C0000B48200081184A24A04680D015E
:108DE0000203040607080902040608106914011B9F
:108DF000141A0378A902011513F357140875502AA1
:108E00000808E9040A154518290463030113748A44
:108E10003308121A860832291AAF0832211A980824
:108E2000299D13854C1408854B1B0881081A83045F
:108E300013914A1B0865101A59041AF90C1AED040B
:108E40001A390C4132401AD03829F91AD408321490
:108E50005AE86022435B201AB01A41480916981A52
:108E60005D1C41499F2942214BE0FF141550494E9A
:108E7000471B504F05314AF814013862204B01015D
:108E80006901291F8025DB3380258C4AC39E14A0ED
:108E900086011CF04902490A23FF52180AC092EDCC
:108EA000191408070201E232045A640472800000B7
:04000005080041317D
:00000001FF
